:020000040800F2
:1000000040080020251D00083103000833030008C4
:10001000370300083B0300083F030008000000000E
:100020000000000000000000000000004303000882
:1000300045030008000000004703000849030008CA
:100040003F1D00083F1D00083F1D00083F1D000820
:100050003F1D00083F1D00084F1600083F1D000807
:100060003F1D00083F1D00083F1D00083F1D000800
:100070003F1D00083F1D00083F1D00083F1D0008F0
:100080003F1D00083F1D00083F1D00083F1D0008E0
:100090003F1D00083F1D00083F1D00083F1D0008D0
:1000A0003F1D00083F1D00083F1D00083F1D0008C0
:1000B0003F1D00085F0700083F1D00083F1D0008A6
:1000C0003F1D00083F1D00083F1D00083F1D0008A0
:1000D0003F1D0008F31C00083F1D00083F1D0008DD
:1000E0003F1D00083F1D00083F1D000800F002F8FA
:1000F00000F04DF80AA090E8000C82448344AAF175
:100100000107DA4501D100F042F8AFF2090EBAE872
:100110000F0013F0010F18BFFB1A43F0010318473B
:10012000A4620000C4620000103A24BF78C878C1FD
:10013000FAD8520724BF30C830C144BF04680C60ED
:10014000704700000023002400250026103A28BF35
:1001500078C1FBD8520728BF30C148BF0B60704739
:10016000662906F01A80642903F06E85732904F06D
:10017000AC80002070471FB504F0BEF804000020DA
:10018000002105F059F8E0601FBD10B510BD04F066
:10019000CFF91146FFF7EFFF00F008F804F0EDF992
:1001A00003B4FFF7F2FF03BC01F048FD1CB500BF2C
:1001B0004FF4E13001F051FD01F0D6FC4FF4A060A6
:1001C00001F0D0FD00F06CFA00F03FFB00214FF48D
:1001D000617000F053FC00214FF6FF7000F0FFFC4F
:1001E00000214FF6FF7000F0B5FC41F61F4163207F
:1001F00000F084FA642001F0F4FC01F0A3F801F0AF
:10020000C5F85021032001F02DFA01F0A0FA08B141
:1002100023A000E023A00446214624A003F0B8FC5C
:1002200026A003F0B5FC0121294802F0B9FD01F038
:10023000E1FA2A217D2000F05FFD30E025480068CA
:1002400008B9012000E00020224908602248008807
:10025000B0F57A7F1BDD122120A001F08FF924A0D8
:1002600003F096FC2748006805F042FC04460D4662
:100270002548006805F03CFC064632460B4623A0A4
:10028000CDE9004503F084FC00201349088027488D
:10029000007820B100202549087000F07DF9CDE7F5
:1002A0004F4B00004641494C210000004E52462071
:1002B000496E6974202573210D0A00005379737407
:1002C000656D20496E6974204F4B0D0A00000000D7
:1002D00000040040B40122421800002053797374D6
:1002E000656D2072756E6E696E672E2E2E00000091
:1002F00053797374656D2072756E6E696E672E2EFC
:100300002E0D0A002400002020000020616E676C82
:1003100065203D2025372E34662C20646F74202004
:100320003D2025372E34660D0A0000009400002081
:10033000704700BFFEE700BFFEE700BFFEE700BF5B
:10034000FEE7704770477047704700000CB500200B
:10035000019000906C48006840F480306A49086061
:1003600000BF6948006800F4003000900198401C0C
:100370000190009818B90198B0F5A06FF1D16248CA
:10038000006800F4003010B10120009001E000206E
:1003900000900098012843D15C48006840F01000AC
:1003A0005A4908600846006820F0030008600846C3
:1003B000006840F0020008605348406852494860B5
:1003C0000846406848600846406840F480604860DD
:1003D0000846406820F47C1048600846406840F4B5
:1003E000E81048600846006840F08070086000BF70
:1003F0004548006800F000700028F9D04248406885
:1004000020F00300404948600846406840F0020080
:10041000486000BF3C48406800F00C000828F9D153
:100420000CBD10B5FFF792FF10BD10B5364800683F
:1004300040F00100344908600846406834490840EB
:100440003149486008460068324908402E49086032
:100450000846006820F4802008600846406820F4C0
:10046000FE0048604FF41F008860FFF7DAFF4FF08E
:1004700000602949086010BD10B50021002000224D
:10048000214B5B6803F00C0121B1042906D0082937
:1004900028D107E0214B224C236027E01F4B204C42
:1004A000236023E0184B5B6803F47010164B5B6805
:1004B00003F48032022303EB904022B9194B4343EB
:1004C000174C23600DE0104B5B6803F4003323B13D
:1004D000144B4343124C236003E0104B4343104C36
:1004E000236003E00D4B0E4C236000BF00BF064BA2
:1004F0005B68C3F303130C4CE15C094B1B68CB40F6
:10050000074C236010BD0000001002400020024094
:100510000000FFF8FFFFF6FE08ED00E000127A0091
:100520000000002000093D000400002010B5014635
:100530000020CB78002204E0D41C0C5D6040541CE9
:10054000E2B29C1CA242F7DB10BD1FB5044600209E
:10055000009001900290039024208DF800004D201F
:100560008DF801008DF8024009208DF80300642009
:100570008DF804003C2C09D16846FFF7D7FF8DF8B1
:100580000F001021684600F0F9FF04E03E2C02D174
:100590002FA003F0FDFA1FBD70B53048FFF7C6FF6E
:1005A0002E49C97B884203D02DA003F0F1FA70BD1B
:1005B0002A480078242800D0F9E7284840784D28B8
:1005C00000D0F4E7254880783C2800D0EFE72348A6
:1005D00080792249497940EA0120A0F5006004B2FF
:1005E0001E48007A1D49C97940EA0120A0F5006043
:1005F00005B214F1640F01DB642C06DD0C2094FBC2
:10060000F0F000B21B49088002E000201949088080
:1006100015F1640F01DB642D06DD162095FBF0F06B
:1006200000B21549088002E00020134908801248F2
:10063000B0F900200F48B0F9001010A003F0A8FA9C
:100640001348018813A003F0A3FA00BFAFE700002E
:100650004E4F20444154410D0A000000DC000020B0
:100660004461746120697320636F72727570656490
:10067000210D0A00140000201600002078203D20E3
:1006800025642C2079203D2025640D0A00000000FF
:100690009C000020434D44203D2025640D0A0000AD
:1006A00008B50121142001F0E7FE10208DF80300A9
:1006B0004FF4C040ADF8000003208DF802006946F9
:1006C000094801F01DFC0120ADF80000694607480B
:1006D00001F016FC0020064908600649C1F8B8017F
:1006E0000549086008BD00000010014000080140F5
:1006F000B401224200002242800121427FB505461A
:100700000C460121022001F0C4FEADF80850ADF8FE
:1007100004400020ADF80A00ADF8060001A9284801
:1007200001F0E2FF0121264802F014FE01221146E9
:10073000234802F050FB1D208DF8000000208DF8AA
:10074000010003208DF8020001208DF803006846A7
:1007500001F00DFB01211A4802F022FB7FBD70B5AC
:100760000020184908600121154802F0E2FDE8B1B7
:100770000121134802F0EEFD00F065FC00F090FA54
:10078000064600F082FA404205B23146284600F0A3
:1007900007FD45420C4801680C48006800F0CCFC9D
:1007A000281A84B221B220B200F07DF80020054959
:1007B0000860074800880C300549088070BD0000BB
:1007C00000040040B8012242240000202000002044
:1007D00018000020012807D10121D14A1160002111
:1007E000D04AC2F8901110E0022807D10021CC4A6B
:1007F00011600121CB4AC2F8901106E028B901210D
:10080000C74A1160C74AC2F890117047012808D141
:100810000121C34A121F11600021C34AC2F8B0115E
:1008200012E0022808D10021BD4A121F11600121E7
:10083000BD4AC2F8B01107E030B90121B84A121F11
:100840001160B94AC2F8B011704708B501210D20F6
:1008500001F012FE0121B54801F023FC10208DF8B3
:1008600003000002ADF8000003208DF80200694685
:10087000AF4801F045FB4CF21000ADF800006946AE
:10088000AC4801F03DFB0120A54908600020A549C6
:10089000C1F890010120A249091F08600020A24967
:1008A000C1F8B00108BD2DE9F04106460F46B6F586
:1008B000617F02DD4FF4617405E016F5617F01DAB6
:1008C0009D4C00E03446B7F5617F02DD4FF4617561
:1008D00005E017F5617F01DA974D00E03D46974846
:1008E000008838B195480088284405B293480088AC
:1008F000201A04B292480088412821D19148B0F9C9
:100900000000642805DA8F480088401D00B28D4938
:1009100008808D48B0F90000642805DA8A4800880C
:10092000401D00B28849088087480088284405B2E5
:1009300084480088201A04B241208449087065E088
:100940007F480088442821D17E48B0F900006428FF
:1009500005DA7C480088401D00B27A4908807A4850
:10096000B0F90000642805DA77480088401D00B21D
:100970007549088074480088281A05B271480088B3
:10098000204404B24420714908703FE06E48B0F939
:1009900000006C49B1F900100844002803DC002075
:1009A0006A4908702DE06748B0F90000002805DBAF
:1009B00064480088401F00B2624908806248B0F96C
:1009C0000000002805DB60480088401F00B25E4937
:1009D00008805E480078412807D15B480088284499
:1009E00005B258480088201A04B2584800784428B4
:1009F00007D155480088281A05B25248008820447B
:100A000004B24F480088572800D124B244B90020CE
:100A1000FFF7FCFE4FF461714D4802F059FC10E005
:100A2000002C01DD012100E002210846FFF7EEFE67
:100A3000002C01DD204600E0604281B2444802F013
:100A400047FC45B90020FFF7C5FE4FF461714048EF
:100A500002F044FC10E0002D01DD012100E0022144
:100A60000846FFF7B7FE002D01DD284600E068428A
:100A700081B2374802F032FCBDE8F08130B589B070
:100A800005460C46012140F6040001F0F5FC182053
:100A90008DF817004FF41060ADF8140003208DF8A6
:100AA000160005A9224801F02BFA0020ADF81E001F
:100AB000ADF81A00ADF81C50ADF8184006A924484E
:100AC00001F012FE6020ADF804000120ADF8060030
:100AD0000020ADF80C0001A91D4801F042FE01A95B
:100AE0001B4801F018FF0821194802F089FA082173
:100AF000174802F0A4FA0121154802F051F901212A
:100B0000134802F059F909B030BD10B50121104861
:100B100002F00FFC18B101210D4802F01BFC10BDC2
:100B2000BC812142008021420000214200023000AD
:100B300000080140000C01407CFCFFFF1400002075
:100B40009C0000201A0000201C0000201E00002035
:100B5000002C014030B587B005460C460121082025
:100B600001F08AFC0121042001F093FC04208DF89F
:100B70001B00C020ADF8180003208DF81A0006A94C
:100B80004D4801F0BDF90020ADF80600ADF80200B7
:100B9000ADF80450ADF800406946484801F0A4FDA6
:100BA0000A231A460321454802F0ADF90420ADF8A6
:100BB0000C000020ADF814000A20ADF80E00002053
:100BC000ADF812000120ADF8100003A93B4802F077
:100BD0001EF80121394802F0E3F807B030BD30B506
:100BE00087B005460C4601210D2001F045FC01218E
:100BF000084601F04EFC0121314801F052FA012172
:100C0000304801F04EFA04208DF81B000820ADF8A2
:100C1000180003208DF81A0006A9274801F070F982
:100C20004FF40040ADF8180006A9274801F068F914
:100C30000020ADF80600ADF80200ADF80450ADF8A4
:100C4000004069464FF0804001F04EFD0A231A46ED
:100C50000321580702F057F90420ADF80C000020DA
:100C6000ADF814000A20ADF80E000020ADF8120017
:100C70000120ADF8100003A9800701F0C8FF012191
:100C8000880702F08DF807B030BD00200B492431F1
:100C90000988494208B20021084A2432118070476D
:100CA00000204FF08041898C494208B200214FF06A
:100CB0008042918470470000000C01400008004011
:100CC00000023000000118000008014010B5044681
:100CD0004F49204605F0E4F810BD10B5C8220021A8
:100CE00007E000BF131EA2F10104A2B2FAD14B1C0F
:100CF000D9B28142F5DB10BD70B504460D46002225
:100D00006B21D02000F0A8FE07221921D02000F08E
:100D1000A3FE06221A21D02000F09EFE00221C21F4
:100D2000D02000F099FE08221B21D02000F094FE74
:100D300070BD70B504462146D02000F0AEFEC5B2AD
:100D4000601CC1B2D02000F0A8FEC6B206EB0520A0
:100D500000B270BD10B57521D02000F09EFE68284D
:100D600001D1012010BD0020FCE710B50E23294A57
:100D70003B21D02000F0B9FE10BD10B53B21D020A2
:100D800000F08BFE234908703C21D02000F085FE46
:100D9000204948703D21D02000F07FFE1D49887019
:100DA0003E21D02000F079FE1A49C8703F21D020A2
:100DB00000F073FE174908714021D02000F06DFE4D
:100DC000144948714321D02000F067FE1149087290
:100DD0004421D02000F061FE0E4948724521D02008
:100DE00000F05BFE0B4988724621D02000F055FED2
:100DF0000849C8724721D02000F04FFE054908730A
:100E00004821D02000F049FE0249487310BD00007F
:100E100034FA8E3CBC0000202DE9F04105460C461A
:100E2000AC480168204605F043F90746AA48016826
:100E3000384605F035F80646A8480168304604F003
:100E400083FEA6490860A6484168A648006805F0E8
:100E50002FF90646A2488168304605F029F9A249D3
:100E600008609F48C06880F0004048609C48C068A7
:100E700080F0004088609D480068C8600868964916
:100E8000096805F00DF8064695480168304604F0FB
:100E90005BFE93490860944948688F49096804F0EB
:100EA000FFFF06468E484168304604F04DFE8C49EF
:100EB00048608D4988688849096804F0F1FF064652
:100EC00087488168304604F03FFE8549886086493E
:100ED000C8688149096804F0E3FF06468048C16894
:100EE000304604F031FE7E49C8607C4801682846DF
:100EF00005F0DEF87E4908607E48007804F088FF3F
:100F0000064677480168304604F0CAFF7A4908600F
:100F10007848007804F07CFF0646714881683046C6
:100F200004F0BEFF754908607248007804F070FF55
:100F3000074671480168384604F0B2FF064670481B
:100F40000168304604F000FE6E49086008460168FA
:100F50006948006804F066FE6B49086069480168EA
:100F60006648006804F05EFE6849086062480068F0
:100F7000674908605F48007804F04AFF0646584811
:100F80004168304604F08CFF62490860604801689F
:100F90005D48006804F084FF064651480168304609
:100FA00005F07BF84E4908605A48016856480068C9
:100FB00004F076FF06464A484168304605F06DF871
:100FC00047494860524801685048006804F068FF8B
:100FD000064643488168304605F05FF8404988601E
:100FE0004C4801684948006804F05AFF06463C48EE
:100FF000C168304605F051F83949C8603C4801687D
:101000004148006804F04CFF064634480168304609
:1010100004F09AFD31490860354801683B48006892
:1010200004F03EFF06462B480168304604F08CFD74
:101030002849086008460168204605F039F8364915
:101040000860BDE8F0812DE9FF5F3F20FFF771FEEA
:10105000019004F041FB804689463D20FFF769FE80
:10106000019004F039FB824642464B4604F024F8D6
:1010700000222A4BCDE9020104F046FB0646284A2D
:10108000284B04F0D1F9044604F0ECF82649086036
:101090004320FFF74EFE0446204604F01DFB0546A4
:1010A000224A234B04F030FB074604F0DBF82149C9
:1010B000086000211F48006804F0FAFF0446002180
:1010C0001948006804F0F4FF05462146FFF7A4FE26
:1010D000BDE8FF9F440000203C00002020000020CD
:1010E0006800002030000020CC00002034000020E8
:1010F00048000020400000204C000020500000204C
:101100003800002054000020580000205C0000201F
:101110006000002064000020240000200080664061
:101120006E861BF0F921094028000020DFEE388789
:1011300063447F3F2C0000202DE9FC5F83460C4672
:101140006B4801906B4800906B49584604F074FE60
:1011500004D36A49584604F06FFF02D20020BDE86C
:10116000FC9F584604F0C4FC0746654A654B04F0F2
:10117000ABF8054604F076F881462046009904F065
:101180008FFE06464946019804F08AFE074631461E
:1011900004F0DAFC054604F007FE82465046DEE71E
:1011A0002DE9FF5F0446894657480390574802904F
:1011B00057480088572803D18220564908800BE001
:1011C00053480088532804D16FF0810051490880AA
:1011D00002E000204F4908804F48008838B14D4850
:1011E00000884D490988084400B24A49088004EB48
:1011F000090004F0F5FD494908604948006804F019
:1012000077FC0746474A484B04F07EFA054604F04F
:1012100029F8434908604148006804F069FC074622
:10122000404A424B04F070FA05460E463C480068BE
:1012300004F05EFC2A463346CDE9000104F044F890
:10124000824604F00FF836490860084601683848BD
:10125000006804F079FC364908602E48B0F90000B7
:1012600004F0BEFD054632480168284604F06CFCD7
:101270002F4908602F492E48006804F0DDFE02D295
:101280002C482B4908602C492948006804F0D4FDFB
:1012900002D229482649086025480168029804F0CE
:1012A000FFFD06461E480168039804F0F9FD074655
:1012B000314604F049FC054604F076FD1F490860FC
:1012C0000D491F48006804F0B7FD05D30B491C48C1
:1012D000006804F0B1FE07D20020154908600C49EF
:1012E000088004B0BDE8F09F14480068F9E70000EA
:1012F0000000964200007041000020C20000204221
:1013000052B81E85EB5104400000504154E3A53D06
:101310009C00002088000020160000207C00002097
:10132000800000209A9999999999E93F9999C93F24
:10133000840000200050C3470050C3C7780000203D
:101340002000002008B50121102001F095F81020A0
:101350008DF80300C002ADF8000003208DF80200F4
:101360006946084800F0CCFD4FF40041054800F004
:1013700074FE08BD08B9012100E00021024A116095
:101380007047000000100140BC01224200B587B048
:1013900001210C2001F070F80121080301F06CF824
:1013A000E020ADF8040001208DF8060018208DF82B
:1013B000070001A93C4800F0A3FD4FF48060ADF8A0
:1013C000040001208DF8060010208DF8070001A907
:1013D000364800F095FD0220ADF8040001208DF89C
:1013E000060010208DF8070001A9304800F088FDA4
:1013F00002212E4800F031FE0020ADF808004FF425
:101400008270ADF80A000020ADF80C00ADF80E00B7
:10141000ADF810004FF40070ADF812001020ADF8D8
:1014200014000020ADF816000720ADF8180002A93E
:101430001F4802F0BDF901211D4802F05EFA07B015
:1014400000BD10B5044600BF0221194802F0D9FAC8
:101450000028F9D02146164802F080FA00BF012189
:10146000134802F0CEFA0028F9D0114802F078FAB9
:10147000C0B210BD10B54FF480610C4800F0EDFD16
:1014800010BD10B54FF48061084800F0E8FD10BDB4
:1014900010B50221054800F0E0FD10BD10B5022195
:1014A000024800F0DCFD10BD00080140000C0140C6
:1014B0000030014070B505460C46FFF7EFFF2846A7
:1014C000FFF7BFFF06462046FFF7BBFFFFF7E0FF31
:1014D000304670BD70B50446FFF7E0FF2046FFF7C9
:1014E000B0FF0020FFF7ADFF0546FFF7D1FF28460C
:1014F00070BD2DE9F04107460D461646FFF7CEFFB9
:101500003846FFF79EFF8046002404E0285DFFF781
:1015100098FF601CC4B2B442F8DBFFF7B9FF404645
:10152000BDE8F0812DE9F04107460D461646FFF76C
:10153000B5FF3846FFF785FF8046002405E0002010
:10154000FFF77FFF2855601CC4B2B442F7DBFFF7FA
:101550009FFF4046BDE8F08170B504460D46FFF799
:1015600090FF05229E492A20FFF7C3FF2A46214605
:10157000A020FFF7BEFFFFF77DFF70BD70B50446EA
:101580000D46FFF77EFF2A462146A820FFF7B1FF50
:10159000FFF770FF70BD1FB50121082000F06CFF40
:1015A0000120ADF80C0003208DF80E0048208DF8C6
:1015B0000F0003A98B4800F0A3FC0021012000F0DC
:1015C000B5FD012001908DF80A0000208DF808007B
:1015D0000C208DF8090001A802F058FA06208DF8B9
:1015E000000001208DF803008DF801008DF8020045
:1015F000684600F0BCFB1FBD10B50720FFF76AFF6F
:10160000044604F0400098B16020FFF763FF76497C
:10161000087008460078212806DA084602787349DF
:101620006120FFF77FFF03E0FF21E220FFF742FF89
:1016300004F0100030B104F0010018B1FF21E120E6
:10164000FFF738FF21462720FFF734FF10BD10B504
:10165000012002F081FA012803D102F08EFAFFF78F
:10166000CBFF10BD70B504460D46FFF70AFF0522FB
:101670005F492A20FFF73DFF052259493020FFF737
:1016800038FF01212120FFF715FF01212220FFF75C
:1016900011FF1A212420FFF70DFF29462520FFF70F
:1016A00009FF0F212620FFF705FF012C08D1FF219C
:1016B0003120FFF7FFFE0F212020FFF7FBFE41E066
:1016C000022C08D1FF213120FFF7F4FE0E2120204B
:1016D000FFF7F0FE36E0032C1AD1FF21E120FFF7DF
:1016E000E9FEFF21E220FFF7E5FE0F212020FFF7B2
:1016F000E1FE5020FFF7A5FE7320FFF7A2FE0121B7
:101700003C20FFF7D7FE06213D20FFF7D3FE19E06E
:101710000E212020FFF7CEFEFF21E120FFF7CAFEB9
:10172000FF21E220FFF7C6FE5020FFF78AFE73205C
:10173000FFF787FE01213C20FFF7BCFE06213D207C
:10174000FFF7B8FEFFF796FEFFF725FF70BD1CB54B
:10175000052223493020FFF7CCFE052269461020E0
:10176000FFF7E0FE002408E01DF804001C49095DB5
:10177000884200D003E0601CC4B2052CF4DB00BF3B
:10178000052C01D101201CBD0020FCE770B507200D
:10179000FFF7A0FE0446002504F0400078B1602069
:1017A000FFF798FE0546212D05DA2A460F496120EC
:1017B000FFF7B8FE03E0FF21E220FFF77BFE04F015
:1017C000100030B104F0010018B1FF21E120FFF753
:1017D00071FE21462720FFF76DFE284670BD0000F0
:1017E0008A000020000C014094000020DC00002052
:1017F0008F00002008B50121082000F03DFE4FF4C5
:101800008070ADF8000003208DF8020014208DF8E0
:1018100003006946D34800F073FB4FF40070ADF845
:10182000000003208DF8020014208DF803006946A3
:10183000CC4800F065FB08BD704700B54FF4007060
:10184000C8491031086040100860FFF7F5FFC5482F
:101850000830006808B9012000E0002000F40070A2
:1018600008B1002000BD4FF40070BE49143108607B
:10187000FFF7E2FFBB480830006800F4007008B1D1
:101880000020EFE74FF40070B64914310860FFF70D
:10189000D3FF0120E6E700B54FF48070B149143161
:1018A0000860FFF7C9FF4FF40070AE4914310860BB
:1018B000FFF7C2FF4FF48070AA4910310860FFF7AC
:1018C000BBFF4FF40070A74910310860FFF7B4FF69
:1018D00000BD00B54FF48070A24914310860FFF7D5
:1018E000ABFF4FF400709F4914310860FFF7A4FF6D
:1018F0004FF480709B4910310860FFF79DFF4FF453
:101900008070984914310860FFF796FF00BD00B55C
:101910004FF48070934914310860FFF78DFF4FF446
:101920000070904910310860FFF786FF4FF4807017
:101930008C4910310860FFF77FFF4FF480708949B0
:1019400014310860FFF778FF00BD00B54FF48070D8
:10195000844914310860FFF76FFF4FF4007081492C
:1019600010310860FFF768FF4FF480707D49103137
:101970000860FFF761FF7B480830006800F40070E2
:1019800040B14FF48070774914310860FFF754FF7D
:10199000002000BD4FF48070724914310860FFF7D9
:1019A0004BFF0120F5E700B508211FE04FF48072DE
:1019B0006C4B14331A60FFF73FFF00F080022AB12E
:1019C0004FF40072674B10331A6004E04FF400725A
:1019D000644B14331A604206100EFFF72DFF4FF4CC
:1019E0008072604B10331A60FFF726FF0A1EA1F1C8
:1019F0000103D9B2DAD14FF480725A4B14331A6012
:101A000000BD00B5082100208A01564B10331A6032
:101A100017E04206100E4FF48072524B14331A60D6
:101A2000FFF70AFF4FF480724E4B10331A60FFF736
:101A300003FF4C4A0832126802F400720AB140F007
:101A400001000A1EA1F10103D9B2E2D14FF4807264
:101A5000444B14331A6000BD70B506460C4615465B
:101A6000FFF7EBFE08B9002070BD3046FFF79BFF83
:101A7000FFF76BFF18B9FFF70EFF0020F4E72046D1
:101A8000FFF791FFFFF761FF2846FFF78CFFFFF795
:101A90005CFFFFF700FF0120E6E770B504460D4646
:101AA000FFF7CBFE08B9002070BD2046FFF77BFF93
:101AB000FFF74BFF18B9FFF7EEFE0020F4E72846CA
:101AC000FFF771FFFFF741FFFFF7B7FE611CC8B2D8
:101AD000FFF769FFFFF739FFFFF793FF0646FFF7B0
:101AE00016FFFFF7D8FE3046DEE72DE9F041074646
:101AF000884614461D46012D02DA0020BDE8F0811B
:101B0000FFF79BFE08B90020F8E73846FFF74BFFC8
:101B1000FFF71BFF18B9FFF7BEFE0020EEE74046B7
:101B2000FFF741FFFFF711FFFFF787FE791CC8B2EF
:101B3000FFF739FFFFF709FF012607E0FFF761FF15
:101B400004F8010BFFF7C5FE701CC6B2AE42F5DB10
:101B5000FFF757FF04F8010BFFF7D9FEFFF79BFED5
:101B60000120CBE7000C014010B56FF0040000F03D
:101B700048F92E4800682E49B0FBF1F02D49087055
:101B80000846007800EB4001C1EBC0104FF6FF7132
:101B900001EAC0002849088010BD0146254A127894
:101BA0004A434FF0E0235A6100229A611A461269B3
:101BB00042F001021A6100BF4FF0E022106900F00C
:101BC00001021AB100F48032002AF5D04FF0E02271
:101BD000126922F001024FF0E0231A6100229A619B
:101BE00070470146144A12884A434FF0E0235A6175
:101BF00000229A611A46126942F001021A6100BF7E
:101C00004FF0E022106900F001021AB100F48032B6
:101C1000002AF5D04FF0E022126922F001024FF0C5
:101C2000E0231A6100229A61704700000000002042
:101C300000127A009600002098000020014600BFA4
:101C4000704700BF344A128802F04002002AF9D0DF
:101C5000C2B2314B1B1D1A80704710B586B00446C6
:101C6000012144F2040000F007FC4FF40070ADF8CD
:101C7000140003208DF8160018208DF8170005A910
:101C8000264800F03DF94FF48060ADF814000420C0
:101C90008DF8170005A9214800F032F925208DF8AC
:101CA000000003208DF801008DF8020001208DF85E
:101CB0000300684600F05BF801940020ADF80800CE
:101CC000ADF80A00ADF80C00ADF810000C20ADF82E
:101CD0000E0001A9104801F084FB012240F22551B9
:101CE0000D4801F016FC01210B4801F006FC06B07E
:101CF00010BD10B540F22551074801F0EFFC48B186
:101D0000054801F06BFC0649088040F22551024865
:101D100001F00EFD10BD0000003801400008014038
:101D20009C0000200948804709480047FEE7FEE77D
:101D3000FEE7FEE7FEE7FEE7FEE7FEE7FEE7FEE77B
:101D400004480549054A064B704700002B0400086B
:101D5000ED00000840020020400800204004002060
:101D60004004002031490143314A1160704770B589
:101D7000002100230F22C47804B32D4C246804F4FE
:101D8000E064C4F5E064210AC1F10403CA40447868
:101D900004FA03F18478144021430901254C0678A4
:101DA000A155047804F01F050124AC4005786D119D
:101DB000AD0005F1E025C5F8004109E0047804F024
:101DC0001F050124AC401C4D0678761145F82640CD
:101DD00070BD1A4A0A400243154B1B1F1A60704718
:101DE00039B1134A121D12680243114B1B1D1A60B0
:101DF00006E00F4A121D126882430D4B1B1D1A602C
:101E00007047042808D14FF0E021096941F004012E
:101E10004FF0E022116107E04FF0E021096921F065
:101E200004014FF0E0221161704700000000FA0544
:101E30000CED00E000E400E080E100E080FFFF1F27
:101E400010B50446CC48844208D10121042000F09A
:101E50002DFB0021042000F029FB46E0C748844206
:101E600008D10121082000F021FB0021082000F00A
:101E70001DFB3AE0C248844208D10121102000F045
:101E800015FB0021102000F011FB2EE0BD4884421C
:101E900008D10121202000F009FB0021202000F0C2
:101EA00005FB22E0B848844208D10121402000F01F
:101EB000FDFA0021402000F0F9FA16E0B348844210
:101EC00008D10121802000F0F1FA0021802000F0EB
:101ED000EDFA0AE0AE48844207D10121801500F0F6
:101EE000E5FA0021A01500F0E1FA10BD10B50121BE
:101EF000084600F0DBFA0021012000F0D7FA10BDFF
:101F00002DE9F04102460025002600200023002490
:101F1000002791F803C00CF00F0591F803C00CF0F6
:101F2000100CBCF1000F03D091F802C04CEA05057B
:101F300091F800C0BCF1000F31D0146800202BE0F4
:101F40004FF0010C0CFA00F3B1F800C00CEA0306E4
:101F50009E4220D183004FF00F0C0CFA03F7BC43D4
:101F600005FA03FC4CEA040491F803C0BCF1280F05
:101F700006D14FF0010C0CFA00FCC2F814C00AE0C4
:101F800091F803C0BCF1480F05D14FF0010C0CFAD9
:101F900000FCC2F810C0401C0828D1D31460B1F86E
:101FA00000C0BCF1FF0F34DD546800202EE000F1CA
:101FB000080C4FF0010808FA0CF3B1F800C00CEA65
:101FC00003069E4221D183004FF00F0C0CFA03F759
:101FD000BC4305FA03FC4CEA040491F803C0BCF1CD
:101FE000280F05D100F1080C08FA0CF8C2F814808B
:101FF00091F803C0BCF1480F07D100F1080C4FF075
:10200000010808FA0CF8C2F81080401C0828CED34A
:102010005460BDE8F0814FF6FF71018002218170AC
:102020000421C17070470246002093680B400BB139
:10203000012000E0002070470146886880B27047A8
:1020400002460020D3680B400BB1012000E00020C5
:1020500070470146C86880B27047016170474161AE
:1020600070470AB1016100E041617047C16070478B
:102070004FF480320A4382618161826182698269A0
:10208000704702460020434B18684FF68073184093
:1020900040EA021008433F4B186070473E49C86150
:1020A0007047F0B50A46002300240021002500F007
:1020B0000046B6F1004F02D1364EF16901E0354ECF
:1020C0007168C0F3034583B200F44016B6F5401FB3
:1020D00008D121F070612F4E766826F070662D4F82
:1020E0007E6012E000F48016B6F5801F06D103264C
:1020F00006FA05F4A14341F0706106E0460D360191
:1021000003FA06F6B14341F0706122B1460D360183
:1021100003FA06F6314300F00046B6F1004F02D153
:102120001C4EF16101E01B4E7160F0BD30B5002224
:102130008B071C0F0F2303FA04F2164B08338C1085
:1021400053F824309343134C08348D1044F8253051
:1021500023468C1053F824308C07240F00FA04F423
:1021600023430C4C08348D1044F8253030BD0A4907
:10217000DC3108607047000000080140000C01409D
:10218000001001400014014000180140001C0140F3
:10219000002001400000014000002042DF480068AC
:1021A00040F00100DD49086008464068DC4908400D
:1021B000DA49486008460068DA490840D7490860AB
:1021C0000846006820F4802008600846406820F433
:1021D000FE0048604FF41F0088607047CF490968CF
:1021E00021F48031CD4A11601146096821F4802123
:1021F0001160B0F5803F03D0B0F5802F0ED106E01E
:10220000C649096841F48031C44A116007E0C349F6
:10221000096841F4A021C14A116000E000BF00BF7D
:10222000704710B501460022002300204A11012A00
:1022300002D1BA4C236806E0022A02D1B74C236AC5
:1022400001E0B64C636A01F01F02012494401C4077
:102250000CB1012000E0002010BD38B50020009036
:102260000024002500BF3120FFF7DBFF0546009862
:10227000401C00900098B0F5A06F01D0002DF2D066
:102280003120FFF7CEFF08B1012400E000242046F2
:1022900038BD01460020A14A106820F0F80040EA4D
:1022A000C10010607047A0490860704702460020D6
:1022B0009A4B586820F47C1042EA01031843974B6C
:1022C0005860704798490866704701460020934A55
:1022D000506820F003000843506070478F48406802
:1022E00000F00C007047014600208C4A506820F036
:1022F000F00008435060704701460020874A50684C
:1023000020F4E06008435060704701460020834A93
:10231000506820F4605040EAC1005060704729B115
:102320007E4A527A02437D4B5A7204E07B4A527ACB
:1023300082437A4B5A7270477B49D83108607047A4
:1023400001460020754A506820F440400843506020
:1023500070470021714A20321170704A82F82010B3
:10236000012802D004280AD104E001216B4A20325E
:10237000117005E00521694A2032117000E000BFAC
:1023800000BF70476949086070476449096A0143A2
:10239000624A11627047654944390860704730B538
:1023A00000210022002400235C4D6D6805F00C0123
:1023B00021B1042905D0082923D105E05C4D056031
:1023C00022E05B4D05601FE0544D6D6805F470120E
:1023D000524D6D6805F48034022505EB92421CB91C
:1023E000544D554305600BE04C4D6D6805F40035C8
:1023F0001DB1504D5543056002E04D4D55430560FC
:1024000002E04B4D056000BF00BF444D6D6805F014
:10241000F0010909484D6B5C0568DD4045603F4DA2
:102420006D6805F4E061090A434D6B5C4568DD4069
:1024300085603A4D6D6805F46051C90A3E4D6B5C8C
:102440004568DD40C560354D6D6805F44041890B38
:102450003A4D6B5CC568B5FBF3F5056130BD29B13C
:102460002E4A526902432D4B5A6104E02B4A5269AD
:1024700082432A4B5A61704729B1284A9269024324
:10248000264B9A6104E0254A92698243234B9A6164
:10249000704729B1214AD2690243204BDA6104E036
:1024A0001E4AD26982431D4BDA61704729B11B4A2B
:1024B000D2680243194BDA6004E0184AD2688243BA
:1024C000164BDA60704729B1144A12690243134B64
:1024D0001A6104E0114A12698243104B1A61704775
:1024E00012494039086070470F49C86470470B496A
:1024F000C87170470948406A40F0807007494862D7
:10250000704701460020054A92680A400AB101203E
:1025100000E00020704701498872704700100240B7
:102520000000FFF8FFFFF6FE000042428004424236
:1025300000127A0000093D00A6000020B60000202D
:1025400010B50446FE48844208D10121C014FFF7AB
:10255000ADFF0021E014FFF7A9FFC4E0B4F1804F04
:1025600008D101210846FFF7AEFF00210120FFF747
:10257000AAFFB8E0F348844208D101210220FFF706
:10258000A2FF00210220FFF79EFFACE0EE4884424C
:1025900008D101210420FFF796FF00210420FFF756
:1025A00092FFA0E0E948844208D101210820FFF70A
:1025B0008AFF00210820FFF786FF94E0E448844268
:1025C00008D101211020FFF77EFF00211020FFF726
:1025D0007AFF88E0DF48844208D101212020FFF7FC
:1025E00072FF00212020FFF76EFF7CE0DA48844272
:1025F00008D101214014FFF759FF00216014FFF7B3
:1026000055FF70E0D548844209D10121C804FFF785
:102610004DFF00214FF40020FFF748FF63E0D04852
:10262000844209D101210805FFF740FF00214FF442
:102630008010FFF73BFF56E0CA48844209D10121D0
:102640004805FFF733FF00214FF40010FFF72EFF7E
:1026500049E0C548844208D101214020FFF733FFFB
:1026600000214020FFF72FFF3DE0C048844208D101
:1026700001218020FFF727FF00218020FFF723FFA3
:1026800031E0BB48844208D101218015FFF71BFFD0
:102690000021A015FFF717FF25E0B648844209D1B5
:1026A00001210804FFF702FF00214FF48030FFF7FB
:1026B000FDFE18E0B048844209D101214804FFF72B
:1026C000F5FE00214FF40030FFF7F0FE0BE0AB48C1
:1026D000844208D101218804FFF7E8FE00214FF46D
:1026E0008020FFF7E3FE10BD00220288944B984241
:1026F0000ED0994B98420BD0B0F1804F08D0914B3F
:10270000984205D0904B984202D0904B984204D109
:102710004FF68F731A404B881A438D4B984207D05F
:102720008C4B984204D04FF6FF431A40CB881A4393
:1027300002808B8883850B880385814B98420BD060
:10274000854B984208D08B4B984205D08A4B9842D3
:1027500002D08A4B984201D10B7A038601238382EF
:10276000704770B5002400220023058C4FF6FE76DA
:1027700035400584028C8388048B4FF68F752C407E
:10278000B51E2C400D882C43751E2A400D892A4306
:102790004D882A436A4DA8420BD06F4DA84208D0FD
:1027A000744DA84205D0744DA84202D0734DA84282
:1027B00013D14FF6F7752A404D892A434FF6FB7522
:1027C0002A408D882A434FF6FF652B404FF6FF5570
:1027D0002B408D892B43CD892B4383800483CD8867
:1027E0008586028470BD70B5002400220023058C0C
:1027F0004FF6EF7635400584028C8388048B48F6CB
:10280000FF752C404FF6FF452C400D884FF6FF76A4
:1028100006EA05252C434FF6DF752A400D8906EAA6
:1028200005152A434D8806EA05152A43444DA8425A
:1028300002D0494DA8421DD14FF67F752A404D89DF
:102840004FF6FF7606EA05152A434FF6BF752A4074
:102850008D8806EA05152A434FF6FF352B404FF2C7
:10286000FF752B408D8906EA85052B43CD8906EA45
:1028700085052B4383800483CD880587028470BD42
:1028800070B5002400220023058C4FF6FF6635400A
:102890000584028C8388848B4FF68F752C404FF60D
:1028A000FC752C400D882C434FF6FF552A400D89AE
:1028B0004FF6FF7606EA05252A434D8806EA0525E8
:1028C0002A431F4DA84202D0234DA8421DD14FF2EA
:1028D000FF752A404D894FF6FF7606EA05252A4303
:1028E0004FF6FF352A408D8806EA05252A434EF625
:1028F000FF752B404DF6FF752B408D8906EA0515B7
:102900002B43CD8906EA05152B4383808483CD882C
:102910008587028470BD70B5002200230024058CD9
:102920004EF6FF7635400584038C8488828B48F60A
:10293000FF752A404FF6FF452A400D8820E0000031
:10294000002C01400004004000080040000C004042
:10295000001000400014004000340140004C0140D1
:10296000005001400054014000180040001C00408D
:102970000020004000400140004401400048014068
:102980004FF6FF7606EA05252A434DF6FF752B40E4
:102990000D8906EA05352B434D8806EA05352B439C
:1029A000FA4DA84202D0FA4DA84208D14BF6FF7565
:1029B0002C408D894FF6FF7606EA85152C438480DE
:1029C0008283CD88A0F84050038470BD828B4FF283
:1029D000FF331A408283828B4FF6FF7303EA012391
:1029E0001A4382837047F0B50C4615460022002139
:1029F0000026078C4EF6FF7C07EA0C070784828BC3
:102A0000018C4FF6FF7707EA043640F6FF473A405D
:102A10004FF6FF7707EA05273A434FF6FF7707EAB5
:102A200003373A43D94FB8420ED0D94FB8420BD0F2
:102A3000B0F1804F08D0D74FB84205D0D64FB8423A
:102A400002D0D64FB84206D14DF6FF77394046F452
:102A50008057394305E047F6FF57394044F4805723
:102A6000394382830184F0BD828B4FF6F3731A40A1
:102A70008283828B0A4382837047F0B50C461546E9
:102A8000002200210026078C4FF6FF6C07EA0C0796
:102A90000784828B018C4FF6FF7707EA04264FF6F6
:102AA0000C773A404FF6FF7707EA03172F433A4374
:102AB000B64FB8420ED0B64FB8420BD0B0F1804FEF
:102AC00008D0B44FB84205D0B34FB84202D0B34F8C
:102AD000B84206D14FF6FF57394046F48077394364
:102AE00005E04FF2FF57394044F480773943828341
:102AF0000184F0BD028B4FF2FF331A400283028B38
:102B00004FF6FF7303EA01231A4302837047F0B5BF
:102B10000C461546002200210026078C4FF6EF7C5C
:102B200007EA0C070784028B018C4FF6FF7707EA50
:102B3000041640F6FF473A404FF6FF7707EA03379F
:102B40003A434FF6FF7707EA05273A438F4FB842DB
:102B50000ED08F4FB8420BD0B0F1804F08D08D4FC0
:102B6000B84205D08C4FB84202D08C4FB84206D143
:102B70004FF6DF77394046F01007394305E04FF64E
:102B80005F77394044F01007394302830184F0BD78
:102B9000028B4FF6F3731A400283028B0A430283BF
:102BA0007047F0B50C46154600220021068C4FF602
:102BB000FE773E400684028B018C4FF60C76324045
:102BC0007E1C06EA03162E433243704EB0420ED0EE
:102BD0006F4EB0420BD0B0F1804F08D06D4EB04276
:102BE00005D06D4EB04202D06C4EB04206D14FF6C9
:102BF000FD76314044F00106314305E04FF6F576AD
:102C0000314044F00106314302830184F0BD70B5C8
:102C100005460C465D4885420ED05D4885420BD086
:102C2000B5F1804F08D05B48854205D05A488542AF
:102C300002D05A48854200D100E000BF208850B938
:102C40002389A28861882846FFF7ABFFE1882846E0
:102C5000FFF79EFF25E0208804280AD12389A28857
:102C600061882846FFF753FFE1882846FFF742FFB7
:102C700017E0208808280AD12389A288618828467D
:102C8000FFF7FBFEE1882846FFF7EEFE09E0238907
:102C9000A28861882846FFF7A6FEE1882846FFF74C
:102CA00095FE70BD2DE9F04105460C460026012732
:102CB000608808B9022600E00026A088012801D11A
:102CC000022700E001272088A0B92389A288618813
:102CD0002846FFF766FFE1882846FFF759FF23895A
:102CE0003A4631462846FFF712FFE1882846FFF7AB
:102CF00001FF13E02389A28861882846FFF707FFB8
:102D0000E1882846FFF7F6FE23893A4631462846F1
:102D1000FFF747FFE1882846FFF73AFFBDE8F0815B
:102D20000A884B881A438B881A43CB881A430B892D
:102D30001A434B891A438B891A43A0F844207047E1
:102D40004FF6FF71818000210180C18041800172B6
:102D500070470021018041808180C18001814181D3
:102D60008181C181704700210180418001218180E2
:102D70000021C18001817047002101804180818054
:102D8000C18001814181818170470000002C014098
:102D9000003401400004004000080040000C0040E6
:102DA00021B1028842F00102028004E002884FF65D
:102DB000FE731A400280704731B1B0F8442042F4EB
:102DC0000042A0F8442005E0B0F84420C2F30E020F
:102DD000A0F8442070471AB183890B43838102E035
:102DE00083898B43838170478182704741EA020364
:102DF000A0F8483070471AB183890B43838102E001
:102E000083898B438381704701894FF6F8721140A3
:102E1000018170470A46002101894FF68F731940DE
:102E200011430181704730B504460D4629462046BE
:102E3000FFF7F0FF208940F00700208130BD2DE929
:102E4000F04104460D4616461F46602D06D13B460E
:102E5000012231462046FFF75AFE05E03B4601229B
:102E600031462046FFF79DFE29462046FFF7D2FF58
:102E7000208940F007002081BDE8F08130B50C4684
:102E800000210189C9B24FF6FF7505EA03251543F4
:102E900025432943018130BD2DE9F04105460E4609
:102EA00017469846002443463A4631462846FFF7DF
:102EB000E5FF2C894FF6F870044044F007044FF604
:102EC0008F70044044F070042C81BDE8F081F0B5AF
:102ED00004460D4616461F463B46324629462046C6
:102EE000FFF7CCFF208940F480402081F0BD0185B0
:102EF000828270470A46002101884FF68F7319407D
:102F0000114301807047F0B50C4615461E4600215E
:102F1000002200230189028B038C4FF6F877394099
:102F200021434FF6FC473A4040F201173A434FF62F
:102F3000DD773B404FF6FF7707EA06172F433B4309
:102F4000018102830384F0BD0A460021018B4FF604
:102F50008F7319401143018370470A460021018B8A
:102F600048F6FF7319404FF6FF7303EA0223194333
:102F7000018370470A460021818B4FF68F731940F9
:102F80001143818370470A460021818B48F6FF7305
:102F900019404FF6FF7303EA0223194381837047F8
:102FA00021B1028842F08002028004E002884FF6DC
:102FB0007F731A400280704721B1828842F0040278
:102FC000828004E082884FF6FB731A40828070474B
:102FD00021B1828842F00802828004E082884FF6A4
:102FE000F7731A408280704721B1828842F0010253
:102FF000828004E082884FF6FE731A408280704718
:103000000A460021018B4FF6F773194011430183E3
:1030100070470A460021018B4FF2FF7319404FF6AB
:10302000FF7303EA02231943018370470A46002114
:10303000818B4FF6F77319401143818370470A461D
:103040000021818B4FF2FF7319404FF6FF7303EAA3
:1030500002231943818370470A460021018B4FF6F2
:10306000FB7319401143018370470A460021018B0D
:103070004FF6FF3319404FF6FF7303EA022319435B
:10308000018370470A460021818B4FF6FB7319407C
:103090001143818370470A460021818B4FF6FF332D
:1030A00019404FF6FF7303EA0223194381837047E7
:1030B0000A460021018B4FF67F73194011430183AB
:1030C00070470A460021018BC1F30E014FF6FF73D2
:1030D00003EA02231943018370470A460021818BCA
:1030E0004FF67F7319401143818370470A460021D0
:1030F000818BC1F30E014FF6FF7303EA02231943DC
:10310000818370470A460021018C4FF6FD731940F8
:103110001143018470470A460021018C4FF6F77372
:1031200019401143018470470A460021018C4FF673
:10313000DF7319404FF6FF7303EA0213194301844A
:1031400070470A460021018C4FF67F7319404FF6F5
:10315000FF7303EA02131943018470470A460021F2
:10316000018C4FF6FF5319404FF6FF7303EA022319
:103170001943018470470A460021018C4FF2FF7306
:1031800019404FF6FF7303EA022319430184704785
:103190000A460021018C4DF6FF7319404FF6FF736C
:1031A00003EA023319430184704730B50023012438
:1031B0008C40A3B2048C9C430484048C02FA01F575
:1031C000ADB22C43048430BD30B5002304248C40C0
:1031D000A3B2048C9C430484048C02FA01F5ADB2C2
:1031E0002C43048430BD70B50346002000241846EB
:1031F000183001258D40ACB21D8CA5431D8409B14A
:10320000082909D100EB6100056825F0700505600B
:103210000568154305600EE00D1FC5F34E052844F3
:10322000056825F4E045056005684FF6FF7606EA77
:1032300002263543056070BD21B1028842F00202CA
:10324000028004E002884FF6FD731A400280704746
:1032500021B1028842F00402028004E002884FF6A5
:10326000FB731A400280704721B1828842F08002CD
:10327000828004E082884FF67F731A408280704714
:1032800002884FF6F7731A40028002880A430280D0
:10329000704782884FF68F731A40828082880A4373
:1032A0008280704702894FF6F8731A4002810289C2
:1032B0000A430281704702894FF67F731A400281E8
:1032C00002890A4302817047818470478185704773
:1032D000818670470187704781877047A0F840104A
:1032E000704702884FF6FF431A40028002880A4363
:1032F000028070470146888E70470146088F7047EC
:103300000146888F70470146B1F84000704701467A
:10331000888C70470146088D704702460020138A4A
:103320000B400BB1012000E000207047CA4302822D
:10333000704730B50246002000230024158A05EAB4
:103340000103958905EA010413B10CB1012000E0E5
:10335000002030BDCA4302827047000010B5044609
:10336000FB48844209D101218803FFF79FF800211F
:103370004FF48040FFF79AF832E0F648844209D1D2
:1033800001214804FFF79FF800214FF40030FFF7B8
:103390009AF825E0F048844209D101218804FFF71A
:1033A00092F800214FF48020FFF78DF818E0EB48E9
:1033B000844209D10121C804FFF785F800214FF4A8
:1033C0000020FFF780F80BE0E548844208D1012196
:1033D0000805FFF778F800214FF48010FFF773F825
:1033E00010BD2DE9F04786B005460E460024A246E2
:1033F00000BFA1460027B08900B100BF2F462C8A2C
:103400004CF6FF700440F08804432C82AC894EF6E1
:10341000F3100440B088318908437189084304439C
:10342000AC81AC8A4FF6FF400440B0890443AC82C3
:1034300001A8FEF7B4FFC648874202D1DDF810A00C
:1034400001E0DDF80CA0A88900F4004040B10AEBCF
:10345000CA0000EB0A1031684900B0FBF1F807E040
:103460000AEBCA0000EB0A1031688900B0FBF1F8E2
:103470006420B8FBF0F004012009642101FB1089ED
:10348000A88900F4004040B1322000EBC900B0FB35
:10349000F1F000F00700044308E0322000EB0910CF
:1034A0006421B0FBF1F000F00F0004432C8106B062
:1034B000BDE8F0874FF41651016000218180C18082
:1034C00001810C21418100218181704710B50246A4
:1034D0000020108A4FF2FF0318400B884C882343CA
:1034E0008C882343CC8823431843108210BD0021CD
:1034F000018041808180C180704721B1828942F47E
:103500000052828104E082894DF6FF731A40828165
:103510007047F0B50346002400260025002040F641
:103520006A17B94200D100BF1846C1F3421401F036
:103530001F06012707FA06F5012C01D10C3004E023
:10354000022C01D1103000E014301AB107682F436B
:10355000076002E00768AF430760F0BD1AB1838AD5
:103560000B43838202E0838A8B4383827047028A03
:103570004FF6F0731A400282028A0A4302827047B1
:1035800082894FF2FF731A40828182890A438281C5
:10359000704721B1828942F00202828104E082896F
:1035A0004FF6FD731A4082817047028A4FF6DF732F
:1035B0001A400282028A0A430282704721B1028ABB
:1035C00042F48042028204E0028A4BF6FF731A4002
:1035D00002827047C1F308028280704701468888E2
:1035E000C0F308007047818941F001018181704773
:1035F000028BD2B20283028B42EA0122028370471D
:10360000028B02F47F420283028B0A4302837047DB
:1036100021B1828A42F02002828204E0828A4FF63F
:10362000DF731A408282704721B1828A42F0100211
:10363000828204E0828A4FF6EF731A4082827047DA
:1036400021B1828A42F00802828204E0828A4FF627
:10365000F7731A408282704721B1828942F4004296
:10366000828103E08289C2F30E028281704721B118
:10367000828A42F40062828204E0828A4FF2FF73FF
:103680001A4082827047828A4FF6FB731A40828208
:10369000828A0A438282704721B1828A42F0020202
:1036A000828204E0828A4FF6FD731A40828270475C
:1036B00002460020B1F5007F00D100BF13880B4007
:1036C0000BB1012000E00020704701F40072B2F558
:1036D000007F00D100BFCA430280704770B5024628
:1036E000002400230025002040F66A16B14200D1D4
:1036F00000BFC1F3421501F01F03012606FA03F3D0
:10370000012D02D19689334006E0022D02D1168A9E
:10371000334001E0968A33400C12012606FA04F485
:103720001688344013B10CB1012000E0002070BDB8
:1037300010B50022002340F66A14A14200D100BF58
:103740000A1201249440A3B2DC43048010BD00009F
:10375000003801400044004000480040004C004058
:103760000050004010B50446BE48844208D10121F3
:103770008014FEF79BFE0021A014FEF797FE16E0D2
:10378000B948844208D101210014FEF79CFE0021B3
:103790002014FEF798FE0AE0B448844207D10121C4
:1037A000C013FEF790FE0021E013FEF78CFE10BD63
:1037B00010B50022028802F441520B884C88234342
:1037C0008C882343CC8823430C8923434C8923438F
:1037D0008C892343CC8923431A430280838B4FF285
:1037E000FF74234083830B8A038210BD2DE9F04FC1
:1037F00085B005460C464FF0000902274FF000083F
:103800004FF0010B0026B246A88B4FF24001084052
:10381000A88302202884B5F81C90A068022801D152
:1038200000BF38E0A08810B94FF0010B01E04FF065
:10383000020B8D48854200D100E000BF6846FEF7CC
:10384000AEFDDDF800A0E088B0F5007F0AD14FEAB8
:103850001A2000EB80004000A168B0FBF1F0401D91
:1038600086B20BE04FEA4B10BAFBF0F000EB8000A1
:103870004000A168B0FBF1F0401D86B20A20B6FB03
:10388000F0F606F00108A6EB0800C0F34F074FF66C
:10389000FF7000EA0828022F01DBFF2F02DD02275C
:1038A0004FF00008E08840EA080038432884A088E8
:1038B000A1890843618808432188084340F40060D7
:1038C00040EA0909A5F81C9005B0BDE8F08F002179
:1038D000018041808180C180018141818181C181DC
:1038E0000721018270470021018041808180C180D1
:1038F0000221816000218181704721B1028842F05C
:103900004002028004E002884FF6BF731A40028032
:10391000704721B1828B42F48062828304E0828B03
:103920004FF6FF331A408283704730B500240023DE
:103930000C110125A540ABB21AB185881D438580C5
:1039400002E085889D43858030BD1AB183880B4392
:10395000838002E083888B43838070478181704736
:103960000146888970474FF6FF62914204D0028871
:1039700042F48072028004E002884FF6FF631A402E
:103980000280704721B1828842F00402828004E004
:1039900082884FF6FB731A408280704702884FF28C
:1039A000FF731A40028002880A4302807047018830
:1039B00041F480510180704721B1028842F40052E5
:1039C000028004E002884DF6FF731A4002807047BF
:1039D00002460020012901D0108B00E0908A704738
:1039E0000146088A7047B1F5804F04D1028842F43D
:1039F0008042028004E002884BF6FF731A40028086
:103A000070470246002013890B400BB1012000E0F3
:103A100000207047CA4302817047F0B5024600207B
:103A200000240023002501F00F070126BE40B4B298
:103A30000B1101269E40B3B2968806EA030516894B
:103A4000264016B10DB1012000E00020F0BD10B5F8
:103A5000002201F00F040123A3409AB2D343038153
:103A600010BD00000030014000380040003C004024
:103A7000002044490860091D0860091D0860091DEF
:103A8000086041483F4914310860704700213D49B2
:103A90008279002A3AD00A46126803689A430B4694
:103AA0001A600A1D126803689A430B1D1A60027996
:103AB00011440A6803681A430A60324A08321268DD
:103AC00003689A432F4B08331A601A1D1268036863
:103AD0009A432C4B0C331A604279102A0ED11A1FCC
:103AE000126803681A43274B08331A601A1D1268BC
:103AF00003681A43234B0C331A600DE021494279C5
:103B000011440A6803681A430A6005E00279114407
:103B10000A6803689A430A607047002101600171D6
:103B20000C214171002181717047164910310968DB
:103B30000143144A10321160704701460020114AB7
:103B4000143212680A400AB1012000E000207047D8
:103B50000C49143108607047014600200022094BCF
:103B60001B6803EA0102074B14331B680B4013B1B7
:103B70000AB1012000E000207047024914310860BA
:103B80007047000000040140FFFF0F007047000075
:103B90000FB4044910B503AA029800F09BFB10BCB7
:103BA0005DF814FBA000002070B50446856900682C
:103BB000C10601D5302600E02026C00707D070BD21
:103BC000D4E9012130469047206A401C20626D1ED6
:103BD000F6D570BD70B5044685690078C00707D179
:103BE00070BDD4E9012120209047206A401C20624A
:103BF0006D1EF6D570BD70B50C460546012A05D080
:103C00002878800600D5EA69002302E0012305E058
:103C10005B1C934202D2E05C0028F9D1A869E61847
:103C2000C01AA861286A184428622846FFF7BCFF1A
:103C300004E0D5E9012114F8010B9047B442F8D310
:103C40002846FFF7C7FF70BD2DE9F0410646002466
:103C500010687529314616A510D0AFF300800028F2
:103C600002DA404213A507E031688A0701D512A5A0
:103C700002E0490704D511A5012401E0AFF300805B
:103C800000210A2206F1240709E0B0FBF2FCB0FB98
:103C9000F2F302FB1C00303078541846491C00280F
:103CA000F3D123462A463046BDE8F04100F093B8F0
:103CB000000000002D0000002B000000200000008C
:103CC0002DE9F0474FF0000A89460446C0F820A0CD
:103CD0002046E1688847002876D0252806D0D4E918
:103CE00001219047206A401C2062F1E7E1682046EC
:103CF00000258847C4F81CA006460027C4F818A071
:103D00002A2E09D0304601F0BFF838B304EB8708FB
:103D1000303EC8F8186019E059F8041B204604EB3F
:103D200087029161E1688847012F064618D1E06952
:103D3000002820DA25F020051DE0D8F8180000EB57
:103D4000800006EB40003038C8F818002046E168D3
:103D50008847064601F098F80028EED1012F0AD0D6
:103D60002E2E08D12046E16888477F1C0646022F88
:103D700045F02005C4DBA069002803DA404245F085
:103D80000105A061E80701D025F01005B6B1A6F144
:103D90004100192802D8203645F400654A463146CC
:103DA000204625604D46FCF7DBF958B1012806D0C6
:103DB000ED1D25F0070000F1080989E704E005F191
:103DC000040985E730468AE7206ABDE8F087704736
:103DD0007047704770472DE9F0470D469946924667
:103DE000044600F124080168880604D5E06921F042
:103DF0001001216000E00120A84201DD471B00E026
:103E00000027A1697A1902EB0900081AA06120783D
:103E1000C00602D42046FFF7C7FE002608E0D4E91A
:103E200001211AF806009047206A401C761C206287
:103E30004E45F4DB2078C0060AD52046FFF7B4FED5
:103E400006E0D4E9012130209047206A401C20621E
:103E5000381EA7F10107F4DC07E0D4E9012118F8C6
:103E600005009047206A401C2062281EA5F101052C
:103E7000F3DC2046FFF7AEFE2078000602D50220D4
:103E8000BDE8F0870120FBE770472DE9FF4F0C46A6
:103E90001E464FF0FF378BB0D2E90001DDF860809D
:103EA0000A908A46C1F30A5505B93D4600210846E5
:103EB0004FF00000BAF1000F00F4400005DA00EB0B
:103EC00080004FF4400101EA50004FEA9059B9F1E7
:103ED000010F00DDB9460A9850EA4A000ED044F6B8
:103EE0001050A5F2FF3545432F14B8F1000F1ED036
:103EF0007542291E1EDDC9F100021CE0B8F1010F58
:103F00004FF0000001D0302103E0F24305E02154DE
:103F1000401CB042FBDB30460022002121540B99AB
:103F2000C1F80880C1E900200FB0BDE8F08FBD1BCB
:103F30006D1CDEE74A4600DA694206A800F07EFA08
:103F400006AB93E8070003AB83E8070050460A99E5
:103F500000F05CFB8DE80700A0F500501F380090D2
:103F60000398002D0ADD42F21F014A46084400234F
:103F700003A90390684600F0C5FD09E0A0F50050D4
:103F80004A461F38002303A90390684600F0CFFD7E
:103F90008DE807000004000C03D04FF0FF3041080B
:103FA00000E01046B8F1000F03D000220092154641
:103FB0001EE0751E05D400F0A3F9303262556D1E67
:103FC000F9D5B3460122084302D000227F1C04E049
:103FD0002078302801D100227F1E002A099784D042
:103FE0001DE0112D07DA00F08BF9303262556D1C9F
:103FF00050EA0102F5D1084302D00098C8B10EE0A2
:104000000021681E05E0235C625C63542254401E5C
:10401000491C8142F7DBAB46A81B401E09900020DB
:1040200004F80B000B98099AC0F80880C0E9002B2F
:104030007AE711264FF0000857E72DE9F04F884640
:104040000446D21D22F0070191B0D1E90001CDE96B
:104050000A0100F0A3FE02460B98C00F01D02D20EC
:1040600007E02068810701D52B2002E0202101EA2A
:10407000C000032A099001D0072A05DB0346414608
:10408000204600F09BF90BE12078800601D5E0691D
:1040900000E00620B8F1650F814606D0B8F1660F42
:1040A00018D0B8F1670F70D131E00020B9F1110FCD
:1040B000009001DB112301E009F101030AAA01A923
:1040C0000CA8FFF7E2FEDDE90C70002609F10105FE
:1040D000834647E001204B4600904FF000470AAA74
:1040E00001A90CA8FFF7D1FEDDE90DB00C995D46E2
:1040F000002610B909F101000D18B9EB050003D431
:10410000C0F1FF3609F10105A5EB09002BE0B9F17B
:10411000010F01DA4FF001090020B9F1110F0090F1
:10412000484601DD112300E003460AAA01A90CA8B4
:10413000FFF7ABFEDDE90C704D4600268346207884
:1041400000070AD4AB4500DA5D4601A8012D04DD65
:10415000411911F8011C302907D04F4502DA17F137
:10416000040F04DA012082460FE06D1EEEE7002FF7
:1041700002DCED1B3E4403E0781CA84200DD7D1C00
:10418000B81B00F1010A4FF000472078000703D464
:10419000AA4501DB4FF0FF3A0021B7F1004F0DF1C6
:1041A00043088DF8431024D002202B23002F01DA7E
:1041B0007F422D230A21021EA0F1010000DC5FB125
:1041C00097FBF1FC97FBF1F201FB1C7C17460CF10D
:1041D000300C08F801CDEEE7A8F10100037021884A
:1041E000090501D5452100E06521A0F1010800F88D
:1041F000011C09980FA9A1EB0807FF1D00B10120C0
:10420000411901EBEA70A1693844081A401EA06107
:104210002078C00602D42046FFF7C6FC099828B1D2
:10422000D4E901219047206A401C20622078C00612
:1042300022D52046FFF7B8FC1EE0002E04DBB34574
:1042400002DD01A8805D00E03020D4E90121904723
:10425000206A401C2062761CAAF101005FEA000A75
:104260000AD100F049F8C0680168405CD4E9012136
:104270009047206A401C2062281EA5F10105DCDC65
:1042800007E0D4E9012118F8010B9047206A401C8F
:104290002062381EA7F10107F3DC2046FFF79AFCE5
:1042A000032011B041E610B5436913B1AFF30080AC
:1042B00001E0FFF7A0FC012010BD127800F12401FD
:1042C0000A7000224A700122EDE711684FF0FF32B8
:1042D000E9E70000074B70B50D467B4400F05BF842
:1042E0000446284600F01CF910B14FF0FF3070BDB5
:1042F000204670BD65D9FFFF00487047FC010020D3
:1043000030B5B0F10A024FEA900E71F100034EEAA7
:10431000817EB0EB0E0061EB91014FEA101E4EEA78
:10432000017E10EB0E0041EB11114FEA102E4EEA08
:10433000016E10EB0E0041EB11214FEA104E4EEAD8
:10434000014E10EB0E0041EB1141401841F100010C
:104350004FEAD00040EA41704FEAD10110EB8005EE
:104360004FEA810444EA907444EB01046D1944EB74
:104370000404521BA3414FF0000348BF0A3200D58A
:1043800030BD401C41F1000130BD000001694A1CF4
:1043900002610878704700B58FB0CDE90131002186
:1043A000059105497944CDE9031011466846FFF7A8
:1043B00087FC0FB000BD0000E5FFFFFF2DE9F041D5
:1043C0001F46044603260168072A01F4006004DB47
:1043D00008B116A505E016A503E008B115A500E093
:1043E00015A521F010002060A069C01EA0610FB1CA
:1043F000401EA0612046FFF7D7FB4FB1D4E9012151
:1044000038469047206A401C2062C01C206206E0AB
:10441000206AFAE7D4E9012115F8010B9047761ECE
:10442000F8D22046FFF7D6FBBDE8F0814E414E00A2
:104430006E616E00494E4600696E66002DE9F047D8
:10444000814616468AB0354878440DC88DE80D007F
:1044500032487844801C03AC0DC884E80D0041F656
:104460009B300844372190FBF1F290FBF1F5A5F168
:10447000800501FB12041B3C02D56442012000E0D0
:104480000020DFF898A080460027FA44AAF1BE0A6F
:104490000EE0E0070AD03246684607EB47010123E9
:1044A0000AEB810100F043FB8DE8070064107F1CDC
:1044B000002CEED1194F7F44AE3F19E0E80715D02C
:1044C00007EB04100DF1180A90E80E008AE80E00C0
:1044D000C068F04201D1981908903246012306A91C
:1044E00003A800F024FB03AB83E807006D10641CF5
:1044F000002DE3D14FF0010332466946B8F1000FB9
:1045000003A802D000F0FEFA01E000F010FBC9E9B8
:104510000001C9F808200AB0BDE8F087601F00005C
:10452000007B00F08000704700487047DC010020ED
:104530007546FFF7F9FFAE4605006946534620F081
:104540000700854618B020B5FDF7FAFBBDE820400E
:104550004FF000064FF000074FF000084FF0000B3F
:1045600021F00701AC46ACE8C009ACE8C009ACE8F2
:10457000C009ACE8C0098D46704710B50446AFF3DA
:1045800000802046BDE81040FBF70ABE4FF0013C1A
:1045900050F8042B51F8043B9A4221D1A2EB0C03B2
:1045A000934313EACC1317D150F8042B51F8043B72
:1045B0009A4215D1A2EB0C03934313EACC130BD10F
:1045C00050F8042B51F8043B9A4209D1A2EB0C039A
:1045D000934313EACC13DBD04FF00000704700BFC9
:1045E000D01A01BAB1FA81F101F0180122FA01F0F2
:1045F000CB40C1F12001DBB2C0B2C01A2CFA01F3EA
:10460000D11A914311EAC311E6D170475FEA400C19
:1046100008BF91F0000F4FEA8C234FEAC12243EA12
:1046200051514FEA1C5018BF00F5F0404FEA3000DE
:1046300018BF41F000415FEA6C5C00F02980BCF1DA
:10464000FF3F08BF40F080407047130C06BF1204C4
:104650004FF0100C4FF0000C130E04BF12020CF1BF
:10466000080C130F04BF12010CF1040C930F04BFCC
:1046700092000CF1020CD30F04BF52000CF1010C9C
:1046800011464FF00002A0F11F00A0EB0C00704794
:1046900011F0004F08BF704731F000413FF4D5AF33
:1046A0000B0C06BF09044FF0100C4FF0000C0B0E62
:1046B00004BF09020CF1080C0B0F04BF09010CF137
:1046C000040C8B0F04BF89000CF1020CCB0F04BF4C
:1046D00049000CF1010CCCF12003A0EB0C0022FAF4
:1046E00003F302FA0CF241EA030100F10100704702
:1046F00020F07F4C80EA030023F07F47ACEB0703F8
:1047000003F57C5300F0004003F1FF032DE98049DD
:104710004FEA154B09B44FEA144325EA0B4E24EA3D
:1047200003480FF2042606EB132749083E785FEA98
:10473000320203FB0667C7F5000707FB06F64FEAE0
:1047400054374FEAD64606F1020607FB066CCCF159
:10475000005C4FEA1C472CEA074C07FB06F40CFBF5
:1047600006F504EB15464FEA961634BF00204FF0CD
:1047700000404FEAD13706FB07FC4FEA1C4C0CFB0C
:104780000BF7D21B03FB0CF761EB07010CFB0EF7D9
:10479000B0EB074072EB17420CFB08F734BFA2EBFB
:1047A0000742B2EB074261EB17414FEA0C444FEA74
:1047B000910706FB07FC4FEA1C4C0CFB0BF7B0EB18
:1047C000C74072EB573203FB0CF734BFA2EBC74272
:1047D000B2EBC74261EB57310CFB0EF7B0EBC700F1
:1047E00072EB57720CFB08F734BFA2EBC702B2EBB7
:1047F000C70261EB5771039F4FEA816141EA921151
:1048000004EBCC044FEAD1374FEA826206FB07FC87
:1048100042EA90124FEA80604FEA1C4C0CFB0BF707
:10482000D21B03FB0CF761EB07010CFB0EF7B0EB9F
:10483000074072EB17420CFB08F734BFA2EB0742AC
:10484000B2EB074261EB17414FEA8C554FEA9107F3
:1048500004EB9C2406FB07FC4FEA1C4C0CFB0BF7FB
:10486000B0EBC74072EB573203FB0CF734BFA2EB3F
:10487000C742B2EBC74261EB57310CFB0EF7B0EB0E
:10488000C70072EB57720CFB08F734BFA2EBC702EC
:10489000B2EBC70261EB577115EB4C254FEA816112
:1048A00041EA92114FEA82624FEAD13742EA90120E
:1048B00006FB07FC44F100044FEA80604FEA1C4C01
:1048C0000CFB0BF7D21B03FB0CF761EB07010CFB96
:1048D0000EF7B0EB074072EB17420CFB08F734BF42
:1048E000A2EB0742B2EB074261EB174115EB1C1537
:1048F0004FEA813141EA92414FEA823242EA9042E4
:104900004FEA80304FEA0C7644F1000448EA034352
:104910004EEA0B484FF0000EB2EB080C71EB0307A8
:1049200024BF624639464EEB0E0E4FF0000B0018C6
:10493000524149414BEB0B0BB2EB080C71EB0307F7
:104940007BF1000B24BF624639464EEB0E0E4FF052
:10495000000B0018524149414BEB0B0BB2EB080C1A
:1049600071EB03077BF1000B24BF624639464EEB27
:104970000E0E51EA020718BF46F0010616EB0E763E
:1049800055F1000254F1000103D5BDE88901BDE8ED
:104990000088BDE88901BDE80048B619524141EBE5
:1049A0000101A3F10103704780807F7E7D7C7B7ACB
:1049B0007978777676757473727171706F6E6E6DCB
:1049C0006C6C6B6A6A696868676666656464636371
:1049D00062616160605F5F5E5E5D5D5C5C5B5B5AF7
:1049E0005A59595858575756565555555454535364
:1049F00052525251515050504F4F4F4E4E4D4D4DBF
:104A00004C4C4C4B4B4B4A4A4A4949494848484709
:104A10004747474646464545454444444443434347
:104A20004342424242414141002B9C4630D47700F0
:104A30002BD01CB54FEA370703B44FF010004FF0EE
:104A40001001BAF1000F06D0BCF1000FDCBF40F03E
:104A5000080040F008014FF000000FBCBDE8104016
:104A60000BF1010BBBF1010F08BF5FEA170722BF73
:104A700012F1010211F101014FF0004143F1000375
:104A800000F0004043EA00007047F9D35708D0E730
:104A900046EA064613F1400F4FEA16461FDD13F1B2
:104AA000200FDFBF16430A46002120335B42BED0F1
:104AB000C3F1200746EA064602FA07F74FEA164610
:104AC00046EA0706C3F1200722FA03F201FA07F7C4
:104AD00021FA03F14FF0000342EA0702A7E746EA92
:104AE000020646EA06464FEA164646EA0106BCBFFB
:104AF00046EA0646360C4FF000034FF000024FF036
:104B0000000194E72DE9804C9A46934670B491E8F1
:104B1000380007C831EA400C48BF34EA430C03D5DB
:104B2000FFF7E6FDFFF780FFF0BCBDE8008C2DE944
:104B3000804C9A46934670B491E8380007C810F04C
:104B4000804F08BF13F0804F03D100F005F8FFF746
:104B50006BFFF0BCBDE8008C20F07F4780EA0300CB
:104B600023F07F4C07EB0C03A3F57C5300F00040CF
:104B7000A3F1FE0392F0000F00F0B38095F0000F58
:104B800000F077802DE901494FEA11404FEA1446C1
:104B900021EA004800FB06FC24EA064708FB06F66B
:104BA00007FB08F800FB07F718EB06484CEB164C20
:104BB0004FEA124B18EB07484FEA15464CEB1740EB
:104BC00022EA0B4E0BFB06FC25EA06470EFB06F617
:104BD00007FB0EFE0BFB07F71EEB064E4CEB164CCD
:104BE0004FF000061EEB074E4CEB174B18EB0B0873
:104BF00040F1000018EB0E0B58EB000840F10000EC
:104C00008F1A4FF000013CBFC943661B14BFB5EBC0
:104C1000040C00213CBFC943F61B4FEA17444EEA7F
:104C20008E0E27EA04454FEA1C4704FB07622CEA74
:104C3000074C05FB07F70CFB05F604FB0CFC16EB19
:104C4000074642EB174216EB0C4642EB1C421BEBAD
:104C5000060658EB0202414146EA9E0601D5BDE830
:104C60000189B619524141EB0101A3F10103BDE8ED
:104C700001894FEA14454FEA114724EA054621EA23
:104C8000074C05FB07F406FB07F70CFB06F105FBD9
:104C90000CFC11EB074144EB17444FEA124711EBB0
:104CA0000C4144EB1C4422EA074C05FB07F206FBCF
:104CB00007F70CFB06F605FB0CFC16EB074642EB70
:104CC000174216EB0C4642EB1C456A1854F10001E2
:104CD00048BF7047B619524141EB0101A3F10103EE
:104CE000704795F0000F37D04FEA11424FEA144752
:104CF00021EA024624EA074C02FB07F106FB07F70C
:104D00000CFB06F402FB0CFC14EB074441EB1741CF
:104D10004FEA154714EB0C4441EB1C4125EA074CC4
:104D200002FB07F506FB07F70CFB06F602FB0CFC83
:104D300016EB074645EB174516EB0C4645EB1C42B8
:104D4000121951F1000148BF7047B619524141EBA9
:104D50000101A3F1010370474FEA14454FEA1147DF
:104D600024EA054621EA074C05FB07F106FB07F795
:104D70000CFB06F24FF0000605FB0CFC12EB0742A1
:104D800041EB174112EB0C4251EB1C4148BF7047FD
:104D9000921841EB0101A3F101037047490050EA69
:104DA000C12018BF04204A0D18BF40F0010040F296
:104DB000FF72B2EB515F08BF40F00200012808BF4C
:104DC000052070472DE9F0414F1E00EBC701044656
:104DD000D1E9000115461E4637F006020DD02A46DD
:104DE000334600F091FC7F1E04EBC703D3E9002398
:104DF00000F06AFA37F00602F1D1022F25D0042F15
:104E000013D0062F18BFBDE8F0812A46334600F0C4
:104E10007BFCD4E90A2300F057FA2A46334600F017
:104E200073FCD4E9082300F04FFA2A46334600F019
:104E30006BFCD4E9062300F047FA2A46334600F01B
:104E400063FCD4E9042300F03FFA2A46334600F01D
:104E50005BFCD4E9022300F037FA2A46334600F01F
:104E600053FCD4E90023BDE8F04100F02DBA012243
:104E700001F0C7B900F028BA024A0020110701F07A
:104E8000C0B9000001FDFFFF30380A2801D201201F
:104E900070470020704700002DE9F84F04460D468A
:104EA00021F0004000917349814211DC724988422F
:104EB00001DC06D12CB120462946BDE8F84FFFF7AA
:104EC000D6BF6E48002DCCBF6D496E49BDE8F88F46
:104ED0006D49814211DD6D498142D8BF4FF0FF36E7
:104EE0006DDD20462946FFF759FF042808BFFFF76C
:104EF000C3FF20462946BDE8F88F6549654F25F078
:104F00000045814233DD6449814219DD0026324685
:104F10004FF080432046294600F0D6F980468A4665
:104F200001222046294601F06CF900223B4600F0A0
:104F3000F5FC4246534600F077FA04460D463EE043
:104F400001260022BA463B462046294600F0BCF91D
:104F500080460F46002253462046294600F0DEFCDC
:104F600042463B4600F060FA04460D4627E04B49B6
:104F700081421BDDDFF828A102260022534620468D
:104F8000294600F0C1FB00223B4600F09DF9804617
:104F90000F46002253462046294600F0BFFC4246F9
:104FA0003B4600F041FA04460D4608E0032622463F
:104FB0002B4600203B4900F037FA04460D462246B6
:104FC0002B461046194600F09FFB8B468246024650
:104FD0000B4600F099FB07460246334888460B46CD
:104FE00006217844FFF7EEFE52465B4600F08CFB4C
:104FF00082462E488B463A46434605217844FFF7C1
:10500000E1FE3A46434600F07FFB02460B46002E87
:10501000504659460CDA00F057F922462B4600F06C
:1050200073FB01B022462B46BDE8F04F00F06ABC8E
:1050300000F04AF922462B4600F066FB1C4A7A44EF
:1050400002EBC603D3E9002300F068FC22462B469E
:1050500000F064FC174A7A4402EBC603D3E900234C
:1050600000F050FC009A002AB8BF81F00041BDE872
:10507000F88F0000000010440000F07F182D445409
:10508000FB21F93FFB21F9BF0000DC3F0000203E7F
:105090000000F33F0000F03F0000E63F00800340C7
:1050A0000000F83F0000F0BF12130000D012000013
:1050B0006E120000361200002DE9F04D9446CCF13E
:1050C000000423F000464CEA0404524F46EAD4742C
:1050D0009A46884621F00042BC4206D8454240EA42
:1050E000050442EAD474BC4204D9BDE8F04D6246DE
:1050F000FFF7C0BEAAF14055A5F17F6555EA0C0443
:105100000BD0022404EAAA74434DDFF810E144EA0C
:10511000D87452EA000B04D00CE0BDE8F04DFFF764
:10512000BBBE002C14BF012CBDE8F08D022C30D08A
:10513000032C32D056EA0C0B0AD0BE4220D1BA4220
:1051400009D126F0804622F080423346114617E00E
:1051500000291ADB25E0DFF8C8B0FB44002C04BFAF
:10516000DBE90001BDE8F08D012C02BFDBE90001A5
:1051700081F00041BDE8F08D022C0AD0032C0CD048
:10518000BA4212D1B8F1000F0BDA23482549BDE825
:10519000F08D28462449BDE8F08D28467146BDE8CB
:1051A000F08D1D482149BDE8F08D921B12153C2A57
:1051B000C4BF19481D490EDCBAF1000FBEBF12F181
:1051C0003C0F0020014606DB624600F02DF921F07D
:1051D0000041FFF761FE002C08BFBDE8F08D012CF7
:1051E00004BF81F00041BDE8F08D114A114B022C43
:1051F00007D000F093FB2A46BDE8F04D0A4B00F0C3
:105200008DBB00F08BFB2A46BDE8F04D064B00F04D
:1052100079BB00000000F07F182D4454FB2109C029
:10522000CA110000FB21F9BFFB210940FB21F93F16
:10523000075C143326A6A13C10B500290AD00878D3
:10524000002807D005487844FFF7A0F9002801D0CE
:10525000002010BD0248784410BD00009E110000DF
:105260009611000021F00042A2F16052B2F5801FB9
:1052700001F0004328BFD2F17F6C0BD95FEA001C1C
:1052800043EAC20242EB507018BF704728BF20F0BB
:1052900001007047B2F5801FBCBF184670474FEA47
:1052A000410C1CF5001F02D2084600F0C0BE70B5CC
:1052B00000F0D4FA00000089FFF7F6BF4FF000407D
:1052C000A0F580007047000010B591EA030F48BFB9
:1052D00083F0004300F12A83841A71EB030C05D29A
:1052E000121943EB0C03001B61EB0C01DFF824E106
:1052F0004FEA1154A4EB135C1EEA430F18BF9EEA59
:10530000445F73D023EA0E03DCF1200E21EA04513E
:1053100043F4801332D322FA0CFE10EB0E0023FA72
:105320000CFE41EB0E01CCF1200E03FA0EFE10EB49
:105330000E0051F10001B1F5801FCCF1200E32D2E8
:1053400001EB045112FA0EF2BDE8104058BF70474D
:10535000401C38BF5FEA420218BF7047002814BFE4
:1053600020F0010041F100014FEA410313F5001F55
:1053700038BF7047A1F1C04100F0BEBA012A43EB2B
:105380000302ACF1200CDCF11F0E32BF4FF0000E17
:1053900023FA0CF310EB030041EB0451B4EB115F63
:1053A000D0D0A1EB045101F5801149085FEA30002B
:1053B00001EB04510ED350F1000038BF12FA0EFE7B
:1053C00008D1BDE81040C9E7401C38BF5FEA42027F
:1053D000CAD1C3E7BDE810404FEA410313F5001FEF
:1053E00038BF7047A1F1C04100F086BA9EEA445F21
:1053F00008D011EA5E0FBDE8104004BF01F0004183
:1054000000207047BDE8104070B500F027FA00BFDB
:1054100064FBBE3E0000E0FF02494FF0000000F0D8
:10542000BEBE00BF0000F87F2DE9C04130B4DFF8F8
:10543000A0C23CEA111418BF3CEA131400F0EC803F
:1054400081EA03051CEA111444EAD57418BF1CEA6A
:10545000131500F0C780A4EB05044FF0004545EAA2
:10546000C12145EAC32341EA505143EA525304F1B2
:105470007F74994204F500344FEAC0204FEAC222FB
:1054800008BF904200F09C804FEA13650FF240166F
:10549000765D4FEA134506FB05F7C7F1807706FBFB
:1054A00007F74FEAD737A7FB03687642C8F580387D
:1054B000A7FB06CE38BFA8F1010807FB08E64FF0AE
:1054C000000EA6FB028CE6FB03CEDCF1000CCEF155
:1054D000004E38BFAEF1010EA6FB0C584FF000078E
:1054E0004FF00005E6FB0E87A1FB08C6A0FB07CE28
:1054F00016EB0E0645F10005E1FB076515F1E04EE0
:105500007EBFA4F580345FEA46066D4116F1800740
:1055100045F100054FEA17274FEA066647EA056797
:10552000A6F1DE46B6F1805F4FEA15251FD9384651
:1055300024F0010C05EBC471BCF1FE6F01EB0C1102
:1055400002D8F0BCBDE8008124425CBF01F5801E9A
:105550009EEAC47F02D4F0BCBDE80081244238D466
:10556000F0BCA1F1C041BDE8004100F0C5B94FEA6F
:10557000D22242EA43524FEAD323A7FB02864FEAE4
:10558000D02040EA415007FB03661EEA0E0F4FEAA7
:10559000D12105FB026658BFA6EB0056B6EB0056BC
:1055A0004FEA520E4EEAC37E18EB0E0E56EB530E28
:1055B000BDD518EB02085E417F1C55F10005B6E72A
:1055C0004FF480154FF000074FF000064FF0000831
:1055D000ADE7F0BC4FF0000001F1C04101F0004127
:1055E000BDE8008111EA0C1F0CEA131500D00CE095
:1055F00013EA0C1F00F025804FF00000F0BC81EA98
:10560000030101F00041BDE80081F0BCBDE80041AC
:1056100081EA030100F070B9F0BCBDE8004170B54B
:1056200000F01CF9097EFC3E00F007B881EA030196
:105630004FF0000001F00041704781EA030100F0E3
:105640005BB9F0BCBDE800414FF000002149704754
:10565000FFFDFBF9F7F5F4F2F0EEEDEBE9E8E6E437
:10566000E3E1E0DEDDDBDAD8D7D5D4D3D1D0CFCDBE
:10567000CCCBCAC8C7C6C5C4C2C1C0BFBEBDBCBBF7
:10568000BAB9B8B7B6B5B4B3B2B1B0AFAEADACABF2
:10569000AAA9A8A8A7A6A5A4A3A3A2A1A09F9F9ECC
:1056A0009D9C9C9B9A99999897979695959493937E
:1056B000929191908F8F8E8E8D8C8C8B8B8A898915
:1056C0008888878786858584848383828281818098
:1056D0000000FF070000F87F10F0004248BF404282
:1056E000B0FA80F310FA03F10AD0C3F11D0303F5F9
:1056F00080634FEA415002EB035202EBD121704725
:105700004FF0000070470000DFF848C170B51CEA98
:10571000111E1EBF1CEA13159EEA0C0F95EA0C0F12
:1057200000F06F8081EA030423EA4C134EEAD47E32
:1057300021EA4C1141F4801143F48013AE44A1FBE3
:10574000024CA0FB0365AEF17F7E361955EB0C05CC
:10575000A1FB034C4CF10003A0FB021C16EB0C0652
:10576000654153F10003094218BF46F0010613F4E6
:10577000007F0BD14FEA03314FEA0530340341EA91
:10578000155140EA16506FF003020AE04FEAC321B8
:105790004FEAC520F40241EA555140EA56506FF0F5
:1057A000020202EB2E4201EB025585EACE710AD0CD
:1057B0005FEA440C18BF24F0004450F1000041F1AE
:1057C000000120EAD47040F2FE7C624500D270BD38
:1057D000A84214BF4FF080444FF04044002E08BF51
:1057E0000024BEF1806FA8BFA1F1C041BDE87040A8
:1057F00080F282804FF0000001F1C04101F00041D1
:1058000070479EEA0C0F0CEA131518BF95EA0C0FAF
:1058100006D04FF0000081EA030E0EF0004170BD8B
:1058200000F01CF88900013E00F007B800F009B84C
:105830004FEA430C5FEA5C5C08D081EA030100F0A8
:105840005BB84FEA410C5FEA5C5CF6D14FF00000B8
:10585000014970470000FF070000F87F0EF1020EBB
:105860002EF0030E5EF8046B364205D4012A43EB9A
:10587000030515F5001F12D8012841EB010C1CF59A
:10588000001F0CD80ED14FEAD17C15F5001F0CEB90
:105890004C0C0CF1020C08BF4CEBD37C04E04FF035
:1058A000080C01E04FEAD37C0CEB4C0526FA05F618
:1058B00006F00706B6F1040C06D20EEB860CBDE826
:1058C00070404CF0010C6047DFE80CF0090B02025D
:1058D0004FF000414FF00000A1F5002170BD1946C6
:1058E0001046012851EB010418BFD4F5001484BF01
:1058F000002001F0004170BD0808A0F500114FEA3A
:105900003101704791EA030F10B581F000413FF576
:10591000E3AC83F0004300F009B8000010B591EA51
:10592000030F48BF83F000433FF5D6AC841A71EBF8
:10593000030C07D212198CF0004C43EB0C03001B34
:1059400061EB0C01DFF8A4E14FEA1154A4EB135C06
:105950001EEA430F18BF9EEA445F00F0B08023EABE
:105960006E03524221EA0451C3EB6E0338BF5B1E43
:10597000DCF1200E25D322FA0CFE10EB0E0043FAC8
:105980000CFE41EB0E01CCF1200E03FA0EFE10EBE3
:105990000E0051F10001CCF1200E29D412FA0EF2C2
:1059A00001EB0451BDE8104058BF7047401C1CBFBC
:1059B000B2F1004F704700280CBF491C20F00100D5
:1059C000704712EB020E43EB030218BF4FF0010EBB
:1059D0004EEA4202ACF1200CDCF11E0E54D943FA1F
:1059E0000CFE10EB0E0051F1FF31CCF11E0ED5D59F
:1059F0000EF1010E12FA0EFE404141EB010101EBE6
:105A0000445C5FEA5C5C10D910EBDE7001EB045182
:105A100038BFBEF1004FBDE8104018BF70470028E6
:105A20000CBF491C20F00100704730D24FEAD42C43
:105A300011F5001124F400641BD0B1FA81F20B3A85
:105A4000A41AA41ED2F12003914030FA03F31943A3
:105A5000904001EBCC71002C01EB0451BDE81040EB
:105A6000A8BF704701F1C0414FF0000001F00041B4
:105A70007047B0FA80F310FA03F100D110BDE41AB8
:105A8000173C4805C90AE4E701EB045110BD491071
:105A900001EB0451BDE810404FEA300002E04FF046
:105AA000000170474A0008BF0042F8D0B2F5001F5D
:105AB00028BF704701F000414FF0000070479EEA98
:105AC000445F07D011EA5E0FBDE8104004BF00211B
:105AD00000207047BDE8104070B5FFF7BFFE00BF63
