:020000040800F2
:10000000300800202D1B0008B5020008B7020008C8
:10001000BB020008BF020008C30200080000000085
:10002000000000000000000000000000C7020008FF
:10003000C902000800000000CB020008CD02000841
:10004000471B0008471B0008471B0008471B000808
:10005000471B0008471B0008CB170008471B000878
:10006000471B0008471B0008471B0008471B0008E8
:10007000471B0008471B0008471B0008471B0008D8
:10008000471B0008471B0008471B0008471B0008C8
:10009000471B0008471B0008471B0008471B0008B8
:1000A000471B0008471B0008471B0008471B0008A8
:1000B000471B0008E3060008471B0008471B000811
:1000C000471B0008471B0008471B0008471B000888
:1000D000471B0008FB1A0008471B0008471B0008C5
:1000E000471B0008471B0008471B000800F002F8E8
:1000F00000F042F80AA090E8000C82448344AAF180
:100100000107DA4501D100F037F8AFF2090EBAE87D
:100110000F0013F0010F18BFFB1A43F0010318473B
:10012000C0500000E0500000103A24BF78C878C1E9
:10013000FAD8520724BF30C830C144BF04680C60ED
:10014000704700000023002400250026103A28BF35
:1001500078C1FBD8520728BF30C148BF0B60704739
:10016000642903F08384732903F02B8500207047F2
:100170001FB51FBD10B510BD03F05AFD1146FFF7A6
:10018000F7FF00F009F803F078FD03B4FFF7F2FF82
:1001900003BC01F057FC000000BF00BF4FF4E1308A
:1001A00001F05FFC01F0E4FB4FF4A06001F0DEFC25
:1001B00000F038FA00F00BFB00214FF4617000F002
:1001C0001FFC00214FF6FF7000F0CBFC00214FF622
:1001D000FF7000F081FC4FF4967001F006FC00F017
:1001E00094FE01F06DF901F08FF95021032001F028
:1001F000F7FA01F06AFB08B115A000E015A004466B
:10020000214616A003F0C8FB41F61F41632000F011
:1002100037FA01201549086015A003F0BDFB16E070
:1002200018480088B0F57A7F09DD122116A001F088
:1002300063FA1AA003F0B0FB0020124908801C48A2
:10024000007820B100201A49087000F067F9E7E74C
:100250004F4B00004641494C210000004E524620C1
:10026000496E6974202573210D0A0000BC012242E9
:1002700053797374656D20496E6974204F4B0D0A74
:10028000000000001800002053797374656D20721F
:10029000756E6E696E672E2E2E0000005379737492
:1002A000656D2072756E6E696E672E2E2E0D0A00BA
:1002B00094000020704700BFFEE700BFFEE700BFCC
:1002C000FEE700BFFEE770477047704770470000C9
:1002D0000CB50020019000906C48006840F480301C
:1002E0006A49086000BF6948006800F40030009067
:1002F0000198401C0190009818B90198B0F5A06FC2
:10030000F1D16248006800F4003010B10120009083
:1003100001E0002000900098012843D15C4800686B
:1003200040F010005A4908600846006820F00300B9
:1003300008600846006840F00200086053484068C2
:10034000524948600846406848600846406840F4A2
:10035000806048600846406820F47C104860084689
:10036000406840F4E81048600846006840F080703B
:10037000086000BF4548006800F000700028F9D010
:100380004248406820F00300404948600846406801
:1003900040F00200486000BF3C48406800F00C009C
:1003A0000828F9D10CBD10B5FFF792FF10BD10B5AC
:1003B0003648006840F0010034490860084640684B
:1003C00034490840314948600846006832490840CD
:1003D0002E4908600846006820F48020086008461E
:1003E000406820F4FE0048604FF41F008860FFF76B
:1003F000DAFF4FF000602949086010BD10B50021F8
:1004000000200022214B5B6803F00C0121B104297C
:1004100006D0082928D107E0214B224C236027E091
:100420001F4B204C236023E0184B5B6803F47010D3
:10043000164B5B6803F48032022303EB904022B931
:10044000194B4343174C23600DE0104B5B6803F4DA
:10045000003323B1144B4343124C236003E0104B91
:100460004343104C236003E00D4B0E4C236000BF50
:1004700000BF064B5B68C3F303130C4CE15C094BF4
:100480001B68CB40074C236010BD000000100240E9
:10049000002002400000FFF8FFFFF6FE08ED00E03C
:1004A00000127A000000002000093D000400002036
:1004B00010B501460020CB78002204E0D41C0C5D6E
:1004C0006040541CE2B29C1CA242F7DB10BD1FB579
:1004D00004460020009001900290039024208DF8A3
:1004E00000004D208DF801008DF8024009208DF8A4
:1004F000030064208DF804003C2C09D16846FFF706
:10050000D7FF8DF80F001021684601F0F5F804E0E0
:100510003E2C02D12FA003F03FFA1FBD70B530482A
:10052000FFF7C6FF2E49C97B884203D02DA003F0F8
:1005300033FA70BD2A480078242800D0F9E728480B
:1005400040784D2800D0F4E7254880783C2800D03A
:10055000EFE7234880792249497940EA0120A0F554
:10056000006004B21E48007A1D49C97940EA0120A2
:10057000A0F5006005B214F1640F01DB642C06DD08
:100580000C2094FBF0F000B21B49088002E0002030
:100590001949088015F1640F01DB642D06DD162072
:1005A00095FBF0F000B21549088002E000201349E5
:1005B00008801248B0F900200F48B0F9001010A0D0
:1005C00003F0EAF91348018813A003F0E5F900BF2E
:1005D000AFE700004E4F20444154410D0A00000097
:1005E000CC0000204461746120697320636F7272D3
:1005F00075706564210D0A001400002016000020AB
:1006000078203D2025642C2079203D2025640D0A8A
:10061000000000009C000020434D44203D20256444
:100620000D0A000008B50121142001F029FE102058
:100630008DF803004FF4C040ADF8000003208DF8A2
:1006400002006946094801F05FFB0120ADF8000097
:100650006946074801F058FB002006490860064932
:10066000C1F8B8010549086008BD0000001001404C
:1006700000080140B40122420000224280012142D0
:100680007FB505460C460121022001F006FEADF8BB
:100690000850ADF804400020ADF80A00ADF806009F
:1006A00001A9284801F024FF0121264802F056FD47
:1006B00001221146234802F092FA1D208DF8000015
:1006C00000208DF8010003208DF8020001208DF834
:1006D0000300684601F04FFA01211A4802F064FA5B
:1006E0007FBD70B50120184908600121154802F04E
:1006F00024FDE8B10121134802F030FD00F061FD56
:1007000000F090FA064600F082FA404205B2314607
:10071000284600F003FE45420C4801680C4800687A
:1007200000F0C8FD281A84B221B220B200F07DF892
:10073000002005490860074800880A3005490880FC
:1007400070BD000000040040B401224224000020DB
:100750002000002018000020012807D10121D14AE3
:1007600011600021D04AC2F8901110E0022807D190
:100770000021CC4A11600121CB4AC2F8901106E059
:1007800028B90121C74A1160C74AC2F890117047C1
:10079000012808D10121C34A121F11600021C34A58
:1007A000C2F8B01112E0022808D10021BD4A121F80
:1007B00011600121BD4AC2F8B01107E030B9012132
:1007C000B84A121F1160B94AC2F8B011704708B593
:1007D00001210D2001F054FD0121B54801F065FB18
:1007E00010208DF803000002ADF8000003208DF802
:1007F00002006946AF4801F087FA4CF21000ADF8EC
:1008000000006946AC4801F07FFA0120A549086064
:100810000020A549C1F890010120A249091F0860E4
:100820000020A249C1F8B00108BD2DE9F0410646FB
:100830000F46B6F5617F02DD4FF4617405E016F5F1
:10084000617F01DA9D4C00E03446B7F5617F02DD3F
:100850004FF4617505E017F5617F01DA974D00E00F
:100860003D469748008838B195480088284405B22D
:1008700093480088201A04B292480088412821D168
:100880009148B0F90000642805DA8F480088401DBF
:1008900000B28D4908808D48B0F90000642805DA5F
:1008A0008A480088401D00B288490880874800882F
:1008B000284405B284480088201A04B241208449A3
:1008C000087065E07F480088442821D17E48B0F94F
:1008D0000000642805DA7C480088401D00B27A498F
:1008E00008807A48B0F90000642805DA7748008863
:1008F000401D00B27549088074480088281A05B266
:1009000071480088204404B24420714908703FE0D7
:100910006E48B0F900006C49B1F900100844002895
:1009200003DC00206A4908702DE06748B0F9000038
:10093000002805DB64480088401F00B26249088037
:100940006248B0F90000002805DB60480088401FBD
:1009500000B25E4908805E480078412807D15B48B4
:100960000088284405B258480088201A04B2584824
:100970000078442807D155480088281A05B2524803
:100980000088204404B24F480088572800D124B280
:1009900044B90020FFF7FCFE4FF461714D4802F0AE
:1009A0009BFB10E0002C01DD012100E00221084644
:1009B000FFF7EEFE002C01DD204600E0604281B230
:1009C000444802F089FB45B90020FFF7C5FE4FF40B
:1009D0006171404802F086FB10E0002D01DD01212D
:1009E00000E002210846FFF7B7FE002D01DD284692
:1009F00000E0684281B2374802F074FBBDE8F08144
:100A000030B589B005460C46012140F6040001F0DE
:100A100037FC18208DF817004FF41060ADF8140063
:100A200003208DF8160005A9224801F06DF9002079
:100A3000ADF81E00ADF81A00ADF81C50ADF8184026
:100A400006A9244801F054FD6020ADF804000120FF
:100A5000ADF806000020ADF80C0001A91D4801F01A
:100A600084FD01A91B4801F05AFE0821194802F033
:100A7000CBF90821174802F0E6F90121154802F0E8
:100A800093F80121134802F09BF809B030BD10B56E
:100A90000121104802F051FB18B101210D4802F06C
:100AA0005DFB10BDBC81214200802142000021423B
:100AB0000002300000080140000C01407CFCFFFFF8
:100AC000140000209C0000201A0000201C000020C0
:100AD0001E000020002C014030B587B005460C46B2
:100AE0000121082001F0CCFB0121042001F0D5FBFD
:100AF00004208DF81B00C020ADF8180003208DF8ED
:100B00001A0006A94D4801F0FFF80020ADF80600D4
:100B1000ADF80200ADF80450ADF800406946484811
:100B200001F0E6FC0A231A460321454802F0EFF8DB
:100B30000420ADF80C000020ADF814000A20ADF838
:100B40000E000020ADF812000120ADF8100003A93E
:100B50003B4801F060FF0121394802F025F807B059
:100B600030BD30B587B005460C4601210D2001F09F
:100B700087FB0121084601F090FB0121314801F07B
:100B800094F90121304801F090F904208DF81B0000
:100B90000820ADF8180003208DF81A0006A9274890
:100BA00001F0B2F84FF40040ADF8180006A927484C
:100BB00001F0AAF80020ADF80600ADF80200ADF88B
:100BC0000450ADF8004069464FF0804001F090FCC1
:100BD0000A231A460321580702F099F80420ADF8B9
:100BE0000C000020ADF814000A20ADF80E00002023
:100BF000ADF812000120ADF8100003A9800701F044
:100C00000AFF0121880701F0CFFF07B030BD0020A7
:100C10000B4924310988494208B20021084A24328C
:100C20001180704700204FF08041898C494208B202
:100C300000214FF08042918470470000000C014079
:100C400000080040000230000001180000080140C8
:100C500008B50121082001F013FB10208DF80300D6
:100C60004FF44070ADF8000003208DF80200694693
:100C7000974801F049F84FF44071954801F0F1F8B8
:100C800008BD10B59248001D006820F0F0009049A2
:100C9000091D08600846006840F030000860012027
:100CA0008C4908608C49C1F8A001042000F079FE4D
:100CB000002088490860042000F073FE0020864967
:100CC000C1F8A00110BD10B58148001D006820F0DA
:100CD000F0007F49091D08600846006840F03000B8
:100CE000086000207B49091F08607B49C1F8A40106
:100CF000042000F056FE01207649091F086076495D
:100D0000C1F8A401042000F04CFE10BD10B5002471
:100D10006F48001D006820F0F0006D49091D086053
:100D20000846006840F080000860012069490860BA
:100D300000F037FE01206849C1F8A00100F031FE43
:100D400007E0601CC4B2FA2C03DDFFF7BCFF0120F2
:100D500010BD6048803800680028F2D15D49091F45
:100D6000086000BFF4E710B500205A49091F086069
:100D70005748001D006820F0F0005549091D086023
:100D80000846006840F03000086000205249C1F871
:100D9000A401022000F005FE01204E49091F086051
:100DA000022000F0FEFD00204B49C1F8A00110BD5B
:100DB00010B500204749091F08604548001D00681C
:100DC00020F0F0004249091D08600846006840F024
:100DD0003000086001204049C1F8A401022000F061
:100DE000E0FD01203B49091F0860022000F0D9FD09
:100DF00000203949C1F8A00110BD70B5044634483F
:100E0000001D006820F0F0003149091D0860084607
:100E1000006840F03000086000202E49091F08607B
:100E200000251DE0E00918B101202A49086002E010
:100E30000020284908606006040E022000F0B1FD81
:100E400001202449091F0860022000F0AAFD0020AB
:100E50002149C1F8A001022000F0A3FD681CC5B221
:100E6000082DDFDB70BD70B5054600241848001D55
:100E7000006820F0F0001649091D08600846006867
:100E800040F080000860002617E000201149091F8B
:100E90000860022000F085FD01200F49C1F8A00183
:100EA0006006040E0B488038006808B1601CC4B2AC
:100EB000012000F076FD701CC6B2082EE5DB15B9E6
:100EC000FFF776FF01E0FFF74EFF204670BD000000
:100ED000000C0140A48121420080214270B50546EA
:100EE0000C46FFF7CEFED020FFF787FFFFF70EFF7F
:100EF0002846FFF782FFFFF709FF2046FFF77DFF37
:100F0000FFF704FFFFF7DFFE70BD10B5FFF7A0FE8F
:100F100000216B20FFF7E2FF07211920FFF7DEFF1A
:100F200006211A20FFF7DAFF00211C20FFF7D6FF69
:100F300008211B20FFF7D2FF10BD70B50446002525
:100F4000FFF79FFED020FFF758FFFFF7DFFE204698
:100F5000FFF753FFFFF7DAFEFFF793FED120FFF70D
:100F60004CFFFFF7D3FE0020FFF77DFF0546FFF79C
:100F7000AAFE284670BD70B504462046FFF7DDFF87
:100F80000546611CC8B2FFF7D8FF064606EB0520F0
:100F900000B270BD2DE9F04105460C46AC48016831
:100FA000204603F0DFFF0746AA480168384603F0F1
:100FB000D1FE0646A8480168304603F01FFDA64949
:100FC0000860A6484168A648006803F0CBFF0646C3
:100FD000A2488168304603F0C5FFA24908609F48D7
:100FE000C06880F0004048609C48C06880F00040C5
:100FF00088609D480068C86008689649096803F0E1
:10100000A9FE064695480168304603F0F7FC93496F
:101010000860944948688F49096803F09BFE0646BA
:101020008E484168304603F0E9FC8C4948608D49A0
:1010300088688849096803F08DFE064687488168FC
:10104000304603F0DBFC854988608649C8688149E1
:10105000096803F07FFE06468048C168304603F009
:10106000CDFC7E49C8607C480168284603F07AFFC1
:101070007E4908607E48007803F024FE06467748E3
:101080000168304603F066FE7A49086078480078C7
:1010900003F018FE064671488168304603F05AFE98
:1010A000754908607248007803F00CFE07467148E5
:1010B0000168384603F04EFE064670480168304627
:1010C00003F09CFC6E4908600846016869480068A6
:1010D00003F002FD6B4908606948016866480068D2
:1010E00003F0FAFC684908606248006867490860D4
:1010F0005F48007803F0E6FD0646584841683046F0
:1011000003F028FE62490860604801685D48006895
:1011100003F020FE064651480168304603F017FFF1
:101120004E4908605A4801685648006803F012FEAC
:1011300006464A484168304603F009FF474948607F
:10114000524801685048006803F004FE06464348D0
:101150008168304603F0FBFE404988604C480168D6
:101160004948006803F0F6FD06463C48C168304631
:1011700003F0EDFE3949C8603C4801684148006809
:1011800003F0E8FD064634480168304603F036FCBB
:1011900031490860354801683B48006803F0DAFDD2
:1011A00006462B480168304603F028FC28490860B1
:1011B00008460168204603F0D5FE36490860BDE8C0
:1011C000F0812DE9FF5F3F20FFF7D5FE019003F08E
:1011D000DDF9804689463D20FFF7CDFE019003F002
:1011E000D5F9824642464B4602F0D6FE00222A4BF3
:1011F000CDE9020103F0E2F90646284A284B03F044
:101200006DF8044602F088FF264908604320FFF786
:10121000B2FE0446204603F0B9F90546224A234BA4
:1012200003F0CCF9074602F077FF2149086000215E
:101230001F48006803F096FE044600211948006824
:1012400003F090FE05462146FFF7A4FEBDE8FF9F90
:10125000440000203C000020200000206800002006
:1012600030000020BC000020340000204800002096
:10127000400000204C0000205000002038000020DA
:1012800054000020580000205C0000206000002076
:101290006400002024000020008066406E861BF061
:1012A000F921094028000020DFEE388763447F3FA2
:1012B0002C0000202DE9FC5F83460C466B48019012
:1012C0006B4800906B49584603F010FD04D36A49FF
:1012D000584603F00BFE02D20020BDE8FC9F5846A2
:1012E00003F060FB0746654A654B02F047FF054681
:1012F00002F012FF81462046009903F02BFD0646BE
:101300004946019803F026FD0746314603F076FB77
:10131000054603F0A3FC82465046DEE72DE9FF5F59
:10132000044689465748039057480290574800881A
:10133000572803D18220564908800BE05348008883
:10134000532804D16FF081005149088002E0002049
:101350004F4908804F48008838B14D4800884D49B2
:101360000988084400B24A49088004EB090003F0E8
:1013700091FC494908604948006803F013FB07469F
:10138000474A484B03F01AF9054602F0C5FE4349A7
:1013900008604148006803F005FB0746404A424B9D
:1013A00003F00CF905460E463C48006803F0FAFAD3
:1013B0002A463346CDE9000102F0E0FE824602F003
:1013C000ABFE36490860084601683848006803F0FB
:1013D00015FB364908602E48B0F9000003F05AFCAE
:1013E000054632480168284603F008FB2F4908608B
:1013F0002F492E48006803F079FD02D22C482B4972
:1014000008602C492948006803F070FC02D2294882
:101410002649086025480168029803F09BFC0646AF
:101420001E480168039803F095FC0746314603F017
:10143000E5FA054603F012FC1F4908600D491F48F4
:10144000006803F053FC05D30B491C48006803F007
:101450004DFD07D20020154908600C49088004B0F2
:10146000BDE8F09F14480068F9E7000000009642CC
:1014700000007041000020C20000204252B81E85CA
:10148000EB5104400000504154E3A53D9C00002076
:1014900088000020160000207C0000208000002032
:1014A0009A9999999999E93F9999C93F840000209F
:1014B0000050C3470050C3C7780000202000002020
:1014C00008B50121102000F0DBFE10208DF803008C
:1014D000C002ADF8000003208DF8020069460848FC
:1014E00000F012FC4FF40041054800F0BAFC08BDC2
:1014F00008B9012100E00021024A11607047000094
:1015000000100140BC01224200B587B001210C202F
:1015100000F0B6FE0121080300F0B2FEE020ADF8B5
:10152000040001208DF8060018208DF8070001A99D
:101530003C4800F0E9FB4FF48060ADF80400012066
:101540008DF8060010208DF8070001A9364800F03C
:10155000DBFB0220ADF8040001208DF8060010200E
:101560008DF8070001A9304800F0CEFB02212E487B
:1015700000F077FC0020ADF808004FF48270ADF861
:101580000A000020ADF80C00ADF80E00ADF8100018
:101590004FF40070ADF812001020ADF814000020D8
:1015A000ADF816000720ADF8180002A91F4802F098
:1015B00003F801211D4802F0A4F807B000BD10B5E2
:1015C000044600BF0221194802F01FF90028F9D093
:1015D0002146164802F0C6F800BF0121134802F068
:1015E00014F90028F9D0114802F0BEF8C0B210BDBD
:1015F00010B54FF480610C4800F033FC10BD10B5FD
:101600004FF48061084800F02EFC10BD10B5022197
:10161000054800F026FC10BD10B50221024800F07C
:1016200022FC10BD00080140000C014000300140C8
:1016300070B505460C46FFF7EFFF2846FFF7BFFFE2
:1016400006462046FFF7BBFFFFF7E0FF304670BDC0
:1016500070B50446FFF7E0FF2046FFF7B0FF00201B
:10166000FFF7ADFF0546FFF7D1FF284670BD2DE916
:10167000F04107460D461646FFF7CEFF3846FFF706
:101680009EFF8046002404E0285DFFF798FF601C61
:10169000C4B2B442F8DBFFF7B9FF4046BDE8F081C1
:1016A0002DE9F04107460D461646FFF7B5FF3846CF
:1016B000FFF785FF8046002405E00020FFF77FFF4D
:1016C0002855601CC4B2B442F7DBFFF79FFF4046C9
:1016D000BDE8F08170B504460D46FFF790FF052286
:1016E0009E492A20FFF7C3FF2A462146A020FFF784
:1016F000BEFFFFF77DFF70BD70B504460D46FFF7D6
:101700007EFF2A462146A820FFF7B1FFFFF770FFB2
:1017100070BD1FB50121082000F0B2FD0120ADF819
:101720000C0003208DF80E0048208DF80F0003A94F
:101730008B4800F0E9FA0021012000F0FBFB0120BA
:1017400001908DF80A0000208DF808000C208DF81B
:10175000090001A802F09EF806208DF80000012083
:101760008DF803008DF801008DF80200684600F046
:1017700002FA1FBD10B50720FFF76AFF044604F008
:10178000400098B16020FFF763FF76490870084673
:101790000078212806DA0846027873496120FFF7AD
:1017A0007FFF03E0FF21E220FFF742FF04F010007B
:1017B00030B104F0010018B1FF21E120FFF738FF3C
:1017C00021462720FFF734FF10BD10B5012002F09D
:1017D000C7F8012803D102F0D4F8FFF7CBFF10BD02
:1017E00070B504460D46FFF70AFF05225F492A201F
:1017F000FFF73DFF052259493020FFF738FF01214F
:101800002120FFF715FF01212220FFF711FF1A21E8
:101810002420FFF70DFF29462520FFF709FF0F21A0
:101820002620FFF705FF012C08D1FF213120FFF70B
:10183000FFFE0F212020FFF7FBFE41E0022C08D124
:10184000FF213120FFF7F4FE0E212020FFF7F0FEEC
:1018500036E0032C1AD1FF21E120FFF7E9FEFF213A
:10186000E220FFF7E5FE0F212020FFF7E1FE5020E8
:10187000FFF7A5FE7320FFF7A2FE01213C20FFF732
:10188000D7FE06213D20FFF7D3FE19E00E212020D0
:10189000FFF7CEFEFF21E120FFF7CAFEFF21E22085
:1018A000FFF7C6FE5020FFF78AFE7320FFF787FE82
:1018B00001213C20FFF7BCFE06213D20FFF7B8FECA
:1018C000FFF796FEFFF725FF70BD1CB505222349E3
:1018D0003020FFF7CCFE052269461020FFF7E0FE1E
:1018E000002408E01DF804001C49095D884200D06E
:1018F00003E0601CC4B2052CF4DB00BF052C01D151
:1019000001201CBD0020FCE770B50720FFF7A0FEFA
:101910000446002504F0400078B16020FFF798FEEF
:101920000546212D05DA2A460F496120FFF7B8FE4A
:1019300003E0FF21E220FFF77BFE04F0100030B14E
:1019400004F0010018B1FF21E120FFF771FE2146EC
:101950002720FFF76DFE284670BD00008A0000209A
:10196000000C014094000020CC0000208F000020DB
:1019700010B56FF0040000F048F92E4800682E49B9
:10198000B0FBF1F02D4908700846007800EB4001EB
:10199000C1EBC0104FF6FF7101EAC0002849088072
:1019A00010BD0146254A12784A434FF0E0235A61A0
:1019B00000229A611A46126942F001021A6100BFC0
:1019C0004FF0E022106900F001021AB100F48032F9
:1019D000002AF5D04FF0E022126922F001024FF008
:1019E000E0231A6100229A6170470146144A128866
:1019F0004A434FF0E0235A6100229A611A46126965
:101A000042F001021A6100BF4FF0E022106900F0BD
:101A100001021AB100F48032002AF5D04FF0E02222
:101A2000126922F001024FF0E0231A6100229A614C
:101A3000704700000000002000127A00960000208D
:101A400098000020014600BF704700BF344A12884A
:101A500002F04002002AF9D0C2B2314B1B1D1A809D
:101A6000704710B586B00446012144F2040000F02E
:101A700007FC4FF40070ADF8140003208DF8160039
:101A800018208DF8170005A9264800F03DF94FF4FD
:101A90008060ADF8140004208DF8170005A92148D6
:101AA00000F032F925208DF8000003208DF80100A8
:101AB0008DF8020001208DF80300684600F05BF805
:101AC00001940020ADF80800ADF80A00ADF80C0054
:101AD000ADF810000C20ADF80E0001A9104801F07F
:101AE00084FB012240F225510D4801F016FC012132
:101AF0000B4801F006FC06B010BD10B540F22551B0
:101B0000074801F0EFFC48B1054801F06BFC0649BD
:101B1000088040F22551024801F00EFD10BD000082
:101B200000380140000801409C000020094880471F
:101B300009480047FEE7FEE7FEE7FEE7FEE7FEE7AF
:101B4000FEE7FEE7FEE7FEE704480549054A064BC7
:101B500070470000AF030008ED00000830020020CD
:101B600030080020300400203004002031490143B7
:101B7000314A1160704770B5002100230F22C478EC
:101B800004B32D4C246804F4E064C4F5E064210A35
:101B9000C1F10403CA40447804FA03F18478144084
:101BA00021430901254C0678A155047804F01F054E
:101BB0000124AC4005786D11AD0005F1E025C5F8B4
:101BC000004109E0047804F01F050124AC401C4DDD
:101BD0000678761145F8264070BD1A4A0A4002433D
:101BE000154B1B1F1A60704739B1134A121D12683A
:101BF0000243114B1B1D1A6006E00F4A121D1268AA
:101C000082430D4B1B1D1A607047042808D14FF00A
:101C1000E021096941F004014FF0E022116107E081
:101C20004FF0E021096921F004014FF0E022116139
:101C3000704700000000FA050CED00E000E400E051
:101C400080E100E080FFFF1F10B50446CC488442CD
:101C500008D10121042000F02DFB0021042000F018
:101C600029FB46E0C748844208D10121082000F042
:101C700021FB0021082000F01DFB3AE0C24884420D
:101C800008D10121102000F015FB0021102000F0E8
:101C900011FB2EE0BD48844208D10121202000F034
:101CA00009FB0021202000F005FB22E0B848844217
:101CB00008D10121402000F0FDFA0021402000F071
:101CC000F9FA16E0B348844208D10121802000F0DF
:101CD000F1FA0021802000F0EDFA0AE0AE488442DB
:101CE00007D10121801500F0E5FA0021A01500F0D0
:101CF000E1FA10BD10B50121084600F0DBFA002121
:101D0000012000F0D7FA10BD2DE9F0410246002570
:101D10000026002000230024002791F803C00CF0C7
:101D20000F0591F803C00CF0100CBCF1000F03D0AC
:101D300091F802C04CEA050591F800C0BCF1000F13
:101D400031D0146800202BE04FF0010C0CFA00F3A6
:101D5000B1F800C00CEA03069E4220D183004FF088
:101D60000F0C0CFA03F7BC4305FA03FC4CEA04041D
:101D700091F803C0BCF1280F06D14FF0010C0CFA0A
:101D800000FCC2F814C00AE091F803C0BCF1480F8F
:101D900005D14FF0010C0CFA00FCC2F810C0401C39
:101DA0000828D1D31460B1F800C0BCF1FF0F34DDB6
:101DB000546800202EE000F1080C4FF0010808FAEA
:101DC0000CF3B1F800C00CEA03069E4221D1830057
:101DD0004FF00F0C0CFA03F7BC4305FA03FC4CEA76
:101DE000040491F803C0BCF1280F05D100F1080CE0
:101DF00008FA0CF8C2F8148091F803C0BCF1480F3F
:101E000007D100F1080C4FF0010808FA0CF8C2F8ED
:101E10001080401C0828CED35460BDE8F0814FF6F6
:101E2000FF710180022181700421C1707047024658
:101E3000002093680B400BB1012000E000207047A8
:101E40000146886880B2704702460020D3680B4084
:101E50000BB1012000E0002070470146C86880B245
:101E6000704701617047416170470AB1016100E04C
:101E700041617047C16070474FF480320A4382610C
:101E80008161826182698269704702460020434B0A
:101E900018684FF68073184040EA021008433F4B21
:101EA000186070473E49C8617047F0B50A46002384
:101EB00000240021002500F00046B6F1004F02D1B9
:101EC000364EF16901E0354E7168C0F3034583B2C7
:101ED00000F44016B6F5401F08D121F070612F4E76
:101EE000766826F070662D4F7E6012E000F4801652
:101EF000B6F5801F06D1032606FA05F4A14341F08A
:101F0000706106E0460D360103FA06F6B14341F072
:101F1000706122B1460D360103FA06F6314300F036
:101F20000046B6F1004F02D11C4EF16101E01B4E9C
:101F30007160F0BD30B500228B071C0F0F2303FA30
:101F400004F2164B08338C1053F824309343134C8F
:101F500008348D1044F8253023468C1053F8243073
:101F60008C07240F00FA04F423430C4C08348D1022
:101F700044F8253030BD0A49DC3108607047000064
:101F800000080140000C0140001001400014014015
:101F900000180140001C01400020014000000140E9
:101FA00000002042DF48006840F00100DD49086081
:101FB00008464068DC490840DA494860084600683D
:101FC000DA490840D74908600846006820F48020B4
:101FD00008600846406820F4FE0048604FF41F0087
:101FE00088607047CF49096821F48031CD4A11607B
:101FF0001146096821F480211160B0F5803F03D0BB
:10200000B0F5802F0ED106E0C649096841F4803151
:10201000C44A116007E0C349096841F4A021C14ADC
:10202000116000E000BF00BF704710B501460022FC
:10203000002300204A11012A02D1BA4C236806E08D
:10204000022A02D1B74C236A01E0B64C636A01F060
:102050001F02012494401C400CB1012000E000202C
:1020600010BD38B5002000900024002500BF3120AD
:10207000FFF7DBFF05460098401C00900098B0F584
:10208000A06F01D0002DF2D03120FFF7CEFF08B1B4
:10209000012400E00024204638BD01460020A14A6A
:1020A000106820F0F80040EAC10010607047A049B5
:1020B00008607047024600209A4B586820F47C1054
:1020C00042EA01031843974B5860704798490866E5
:1020D000704701460020934A506820F003000843EF
:1020E000506070478F48406800F00C007047014610
:1020F00000208C4A506820F0F00008435060704780
:1021000001460020874A506820F4E0600843506090
:10211000704701460020834A506820F4605040EA2E
:10212000C1005060704729B17E4A527A02437D4B0C
:102130005A7204E07B4A527A82437A4B5A72704751
:102140007B49D8310860704701460020754A5068C5
:1021500020F440400843506070470021714A20320B
:102160001170704A82F82010012802D004280AD188
:1021700004E001216B4A2032117005E00521694A13
:102180002032117000E000BF00BF7047694908604D
:1021900070476449096A0143624A116270476549A0
:1021A00044390860704730B5002100220024002324
:1021B0005C4D6D6805F00C0121B1042905D008299A
:1021C00023D105E05C4D056022E05B4D05601FE01A
:1021D000544D6D6805F47012524D6D6805F48034ED
:1021E000022505EB92421CB9544D554305600BE0A6
:1021F0004C4D6D6805F400351DB1504D55430560DB
:1022000002E04D4D5543056002E04B4D056000BFB7
:1022100000BF444D6D6805F0F0010909484D6B5C45
:102220000568DD4045603F4D6D6805F4E061090AD1
:10223000434D6B5C4568DD4085603A4D6D6805F443
:102240006051C90A3E4D6B5C4568DD40C560354D47
:102250006D6805F44041890B3A4D6B5CC568B5FB70
:10226000F3F5056130BD29B12E4A526902432D4B69
:102270005A6104E02B4A526982432A4B5A617047E3
:1022800029B1284A92690243264B9A6104E0254A03
:1022900092698243234B9A61704729B1214AD269DE
:1022A0000243204BDA6104E01E4AD26982431D4B8F
:1022B000DA61704729B11B4AD2680243194BDA60D0
:1022C00004E0184AD2688243164BDA60704729B19D
:1022D000144A12690243134B1A6104E0114A12694D
:1022E0008243104B1A6170471249403908607047A9
:1022F0000F49C86470470B49C87170470948406A64
:1023000040F0807007494862704701460020054A46
:1023100092680A400AB1012000E00020704701499C
:1023200088727047001002400000FFF8FFFFF6FEC1
:10233000000042428004424200127A0000093D003F
:10234000A6000020B600002010B50446FE488442D6
:1023500008D10121C014FFF7ADFF0021E014FFF701
:10236000A9FFC4E0B4F1804F08D101210846FFF76E
:10237000AEFF00210120FFF7AAFFB8E0F348844236
:1023800008D101210220FFF7A2FF00210220FFF760
:102390009EFFACE0EE48844208D101210420FFF703
:1023A00096FF00210420FFF792FFA0E0E948844255
:1023B00008D101210820FFF78AFF00210820FFF73C
:1023C00086FF94E0E448844208D101211020FFF701
:1023D0007EFF00211020FFF77AFF88E0DF4884426B
:1023E00008D101212020FFF772FF00212020FFF7F4
:1023F0006EFF7CE0DA48844208D101214014FFF7E7
:1024000059FF00216014FFF755FF70E0D548844262
:1024100009D10121C804FFF74DFF00214FF400202E
:10242000FFF748FF63E0D048844209D10121080545
:10243000FFF740FF00214FF48010FFF73BFF56E00D
:10244000CA48844209D101214805FFF733FF002122
:102450004FF40010FFF72EFF49E0C548844208D131
:1024600001214020FFF733FF00214020FFF72FFF1D
:102470003DE0C048844208D101218020FFF727FFBA
:1024800000218020FFF723FF31E0BB48844208D1C0
:1024900001218015FFF71BFF0021A015FFF717FF93
:1024A00025E0B648844209D101210804FFF702FF64
:1024B00000214FF48030FFF7FDFE18E0B048844261
:1024C00009D101214804FFF7F5FE00214FF4003047
:1024D000FFF7F0FE0BE0AB48844208D101218804ED
:1024E000FFF7E8FE00214FF48020FFF7E3FE10BD68
:1024F00000220288944B98420ED0994B98420BD000
:10250000B0F1804F08D0914B984205D0904B984243
:1025100002D0904B984204D14FF68F731A404B88EB
:102520001A438D4B984207D08C4B984204D04FF6FB
:10253000FF431A40CB881A4302808B8883850B881F
:102540000385814B98420BD0854B984208D08B4B2A
:10255000984205D08A4B984202D08A4B984201D1CA
:102560000B7A038601238382704770B50024002212
:102570000023058C4FF6FE7635400584028C838857
:10258000048B4FF68F752C40B51E2C400D882C43C4
:10259000751E2A400D892A434D882A436A4DA84258
:1025A0000BD06F4DA84208D0744DA84205D0744D91
:1025B000A84202D0734DA84213D14FF6F7752A40B6
:1025C0004D892A434FF6FB752A408D882A434FF6E2
:1025D000FF652B404FF6FF552B408D892B43CD894E
:1025E0002B4383800483CD888586028470BD70B5BB
:1025F000002400220023058C4FF6EF763540058439
:10260000028C8388048B48F6FF752C404FF6FF45FB
:102610002C400D884FF6FF7606EA05252C434FF631
:10262000DF752A400D8906EA05152A434D8806EA1A
:1026300005152A43444DA84202D0494DA8421DD158
:102640004FF67F752A404D894FF6FF7606EA05154D
:102650002A434FF6BF752A408D8806EA05152A439E
:102660004FF6FF352B404FF2FF752B408D8906EA60
:1026700085052B43CD8906EA85052B43838004839A
:10268000CD880587028470BD70B500240022002328
:10269000058C4FF6FF6635400584028C8388848B59
:1026A0004FF68F752C404FF6FC752C400D882C434F
:1026B0004FF6FF552A400D894FF6FF7606EA0525AD
:1026C0002A434D8806EA05252A431F4DA84202D019
:1026D000234DA8421DD14FF2FF752A404D894FF678
:1026E000FF7606EA05252A434FF6FF352A408D88F6
:1026F00006EA05252A434EF6FF752B404DF6FF7579
:102700002B408D8906EA05152B43CD8906EA051570
:102710002B4383808483CD888587028470BD70B508
:10272000002200230024058C4EF6FF7635400584F8
:10273000038C8488828B48F6FF752A404FF6FF454C
:102740002A400D8820E00000002C014000040040D9
:1027500000080040000C0040001000400014004041
:1027600000340140004C0140005001400054014041
:1027700000180040001C00400020004000400140C4
:1027800000440140004801404FF6FF7606EA052567
:102790002A434DF6FF752B400D8906EA05352B437C
:1027A0004D8806EA05352B43FA4DA84202D0FA4D72
:1027B000A84208D14BF6FF752C408D894FF6FF7665
:1027C00006EA85152C4384808283CD88A0F840508A
:1027D000038470BD828B4FF2FF331A408283828B59
:1027E0004FF6FF7303EA01231A4382837047F0B563
:1027F0000C461546002200210026078C4EF6FF7C71
:1028000007EA0C070784828B018C4FF6FF7707EAF3
:10281000043640F6FF473A404FF6FF7707EA0527B0
:102820003A434FF6FF7707EA03373A43D94FB842A6
:102830000ED0D94FB8420BD0B0F1804F08D0D74F4F
:10284000B84205D0D64FB84202D0D64FB84206D1D2
:102850004DF6FF77394046F48057394305E047F697
:10286000FF57394044F48057394382830184F0BDD7
:10287000828B4FF6F3731A408283828B0A438283E2
:102880007047F0B50C461546002200210026078C43
:102890004FF6FF6C07EA0C070784828B018C4FF61A
:1028A000FF7707EA04264FF60C773A404FF6FF779A
:1028B00007EA03172F433A43B64FB8420ED0B64F3C
:1028C000B8420BD0B0F1804F08D0B44FB84205D019
:1028D000B34FB84202D0B34FB84206D14FF6FF57BC
:1028E000394046F48077394305E04FF2FF573940CD
:1028F00044F48077394382830184F0BD028B4FF228
:10290000FF331A400283028B4FF6FF7303EA012361
:102910001A4302837047F0B50C4615460022002189
:102920000026078C4FF6EF7C07EA0C070784028B22
:10293000018C4FF6FF7707EA041640F6FF473A404E
:102940004FF6FF7707EA03373A434FF6FF7707EA78
:1029500005273A438F4FB8420ED08F4FB8420BD065
:10296000B0F1804F08D08D4FB84205D08C4FB8429F
:1029700002D08C4FB84206D14FF6DF77394046F08F
:102980001007394305E04FF65F77394044F01007F0
:10299000394302830184F0BD028B4FF6F3731A4072
:1029A0000283028B0A4302837047F0B50C4615463A
:1029B00000220021068C4FF6FE773E400684028BF3
:1029C000018C4FF60C7632407E1C06EA03162E432D
:1029D0003243704EB0420ED06F4EB0420BD0B0F1C9
:1029E000804F08D06D4EB04205D06D4EB04202D03F
:1029F0006C4EB04206D14FF6FD76314044F00106F0
:102A0000314305E04FF6F576314044F0010631439D
:102A100002830184F0BD70B505460C465D488542D1
:102A20000ED05D4885420BD0B5F1804F08D05B4891
:102A3000854205D05A48854202D05A48854200D185
:102A400000E000BF208850B92389A2886188284609
:102A5000FFF7ABFFE1882846FFF79EFF25E02088BF
:102A600004280AD12389A28861882846FFF753FFEA
:102A7000E1882846FFF742FF17E0208808280AD19E
:102A80002389A28861882846FFF7FBFEE188284653
:102A9000FFF7EEFE09E02389A28861882846FFF748
:102AA000A6FEE1882846FFF795FE70BD2DE9F041AE
:102AB00005460C4600260127608808B9022600E07A
:102AC0000026A088012801D1022700E001272088E4
:102AD000A0B92389A28861882846FFF766FFE188AC
:102AE0002846FFF759FF23893A4631462846FFF723
:102AF00012FFE1882846FFF701FF13E02389A2882F
:102B000061882846FFF707FFE1882846FFF7F6FEB1
:102B100023893A4631462846FFF747FFE188284691
:102B2000FFF73AFFBDE8F0810A884B881A438B888B
:102B30001A43CB881A430B891A434B891A438B8952
:102B40001A43A0F8442070474FF6FF71818000219E
:102B50000180C18041800172704700210180418065
:102B60008180C180018141818181C18170470021C3
:102B700001804180012181800021C1800181704755
:102B80000021018041808180C1800181418181815A
:102B900070470000002C0140003401400004004058
:102BA00000080040000C004021B1028842F0010200
:102BB000028004E002884FF6FE731A4002807047DC
:102BC00031B1B0F8442042F40042A0F8442005E0BE
:102BD000B0F84420C2F30E02A0F8442070471AB1A6
:102BE00083890B43838102E083898B438381704710
:102BF0008182704741EA0203A0F8483070471AB159
:102C000083890B43838102E083898B4383817047EF
:102C100001894FF6F8721140018170470A46002180
:102C200001894FF68F73194011430181704730B508
:102C300004460D4629462046FFF7F0FF208940F064
:102C40000700208130BD2DE9F04104460D461646AF
:102C50001F46602D06D13B46012231462046FFF734
:102C60005AFE05E03B46012231462046FFF79DFE15
:102C700029462046FFF7D2FF208940F00700208137
:102C8000BDE8F08130B50C4600210189C9B24FF68C
:102C9000FF7505EA0325154325432943018130BD0E
:102CA0002DE9F04105460E46174698460024434656
:102CB0003A4631462846FFF7E5FF2C894FF6F87073
:102CC000044044F007044FF68F70044044F0700451
:102CD0002C81BDE8F081F0B504460D4616461F462E
:102CE0003B46324629462046FFF7CCFF208940F478
:102CF00080402081F0BD0185828270470A46002114
:102D000001884FF68F731940114301807047F0B569
:102D10000C4615461E460021002200230189028B25
:102D2000038C4FF6F877394021434FF6FC473A4081
:102D300040F201173A434FF6DD773B404FF6FF77FD
:102D400007EA06172F433B43018102830384F0BD4A
:102D50000A460021018B4FF68F73194011430183FE
:102D600070470A460021018B48F6FF7319404FF661
:102D7000FF7303EA02231943018370470A460021C7
:102D8000818B4FF68F7319401143818370470A4638
:102D90000021818B48F6FF7319404FF6FF7303EA59
:102DA000022319438183704721B1028842F08002D7
:102DB000028004E002884FF67F731A400280704759
:102DC00021B1828842F00402828004E082884FF6BA
:102DD000FB731A408280704721B1828842F008025A
:102DE000828004E082884FF6F7731A408280704731
:102DF00021B1828842F00102828004E082884FF68D
:102E0000FE731A40828070470A460021018B4FF6FC
:102E1000F77319401143018370470A460021018B63
:102E20004FF2FF7319404FF6FF7303EA0223194371
:102E3000018370470A460021818B4FF6F7731940D2
:102E40001143818370470A460021818B4FF2FF7343
:102E500019404FF6FF7303EA022319438183704739
:102E60000A460021018B4FF6FB7319401143018381
:102E700070470A460021018B4FF6FF3319404FF689
:102E8000FF7303EA02231943018370470A460021B6
:102E9000818B4FF6FB7319401143818370470A46BB
:102EA0000021818B4FF6FF3319404FF6FF7303EA81
:102EB00002231943818370470A460021018B4FF694
:102EC0007F7319401143018370470A460021018B2B
:102ED000C1F30E014FF6FF7303EA02231943018386
:102EE00070470A460021818B4FF67F7319401143CA
:102EF000818370470A460021818BC1F30E014FF692
:102F0000FF7303EA02231943818370470A460021B5
:102F1000018C4FF6FD7319401143018470470A4636
:102F20000021018C4FF6F77319401143018470475B
:102F30000A460021018C4FF6DF7319404FF6FF73EC
:102F400003EA02131943018470470A460021018CE9
:102F50004FF67F7319404FF6FF7303EA02131943CC
:102F6000018470470A460021018C4FF6FF53194037
:102F70004FF6FF7303EA02231943018470470A46A0
:102F80000021018C4FF2FF7319404FF6FF7303EAE3
:102F900002231943018470470A460021018C4DF633
:102FA000FF7319404FF6FF7303EA0233194301849C
:102FB000704730B5002301248C40A3B2048C9C439D
:102FC0000484048C02FA01F5ADB22C43048430BDB4
:102FD00030B5002304248C40A3B2048C9C430484A9
:102FE000048C02FA01F5ADB22C43048430BD70B5F7
:102FF0000346002000241846183001258D40ACB24D
:103000001D8CA5431D8409B1082909D100EB61007D
:10301000056825F0700505600568154305600EE03C
:103020000D1FC5F34E052844056825F4E0450560ED
:1030300005684FF6FF7606EA02263543056070BD47
:1030400021B1028842F00202028004E002884FF6B9
:10305000FD731A400280704721B1028842F00402D9
:10306000028004E002884FF6FB731A40028070472A
:1030700021B1828842F08002828004E082884FF68B
:103080007F731A408280704702884FF6F7731A40A8
:10309000028002880A430280704782884FF68F734D
:1030A0001A40828082880A438280704702894FF6E4
:1030B000F8731A40028102890A430281704702892B
:1030C0004FF67F731A40028102890A4302817047DA
:1030D000818470478185704781867047018770477A
:1030E00081877047A0F84010704702884FF6FF4371
:1030F0001A40028002880A43028070470146888E87
:1031000070470146088F70470146888F7047014617
:10311000B1F8400070470146888C70470146088D21
:10312000704702460020138A0B400BB1012000E0DB
:1031300000207047CA430282704730B50246002023
:1031400000230024158A05EA0103958905EA010494
:1031500013B10CB1012000E0002030BDCA4302824F
:103160007047000010B50446FB48844209D1012194
:103170008803FFF79FF800214FF48040FFF79AF88B
:1031800032E0F648844209D101214804FFF79FF854
:1031900000214FF40030FFF79AF825E0F048844210
:1031A00009D101218804FFF792F800214FF4802013
:1031B000FFF78DF818E0EB48844209D10121C804DB
:1031C000FFF785F800214FF40020FFF780F80BE0AF
:1031D000E548844208D101210805FFF778F800216D
:1031E0004FF48010FFF773F810BD2DE9F04786B05B
:1031F00005460E460024A24600BFA1460027B0891E
:1032000000B100BF2F462C8A4CF6FF700440F088B6
:1032100004432C82AC894EF6F3100440B088318907
:103220000843718908430443AC81AC8A4FF6FF40E0
:103230000440B0890443AC8201A8FEF7B4FFC6483D
:10324000874202D1DDF810A001E0DDF80CA0A889CA
:1032500000F4004040B10AEBCA0000EB0A103168EC
:103260004900B0FBF1F807E00AEBCA0000EB0A10D6
:1032700031688900B0FBF1F86420B8FBF0F004017C
:103280002009642101FB1089A88900F4004040B1A5
:10329000322000EBC900B0FBF1F000F0070004435E
:1032A00008E0322000EB09106421B0FBF1F000F0DF
:1032B0000F0004432C8106B0BDE8F0874FF416518F
:1032C000016000218180C18001810C2141810021A8
:1032D0008181704710B502460020108A4FF2FF032B
:1032E00018400B884C8823438C882343CC88234385
:1032F0001843108210BD0021018041808180C1806F
:10330000704721B1828942F40052828104E08289AF
:103310004DF6FF731A4082817047F0B503460024D2
:1033200000260025002040F66A17B94200D100BFF0
:103330001846C1F3421401F01F06012707FA06F5EB
:10334000012C01D10C3004E0022C01D1103000E03E
:1033500014301AB107682F43076002E00768AF43D3
:103360000760F0BD1AB1838A0B43838202E0838A2F
:103370008B4383827047028A4FF6F0731A400282B1
:10338000028A0A430282704782894FF2FF731A4011
:10339000828182890A438281704721B1828942F009
:1033A0000202828104E082894FF6FD731A40828115
:1033B0007047028A4FF6DF731A400282028A0A437C
:1033C0000282704721B1028A42F48042028204E004
:1033D000028A4BF6FF731A4002827047C1F308025B
:1033E0008280704701468888C0F308007047818951
:1033F00041F0010181817047028BD2B20283028BBE
:1034000042EA012202837047028B02F47F42028368
:10341000028B0A430283704721B1828A42F0200264
:10342000828204E0828A4FF6DF731A4082827047FC
:1034300021B1828A42F01002828204E0828A4FF631
:10344000EF731A408282704721B1828A42F00802EB
:10345000828204E0828A4FF6F7731A4082827047B4
:1034600021B1828942F40042828103E08289C2F361
:103470000E028281704721B1828A42F40062828208
:1034800004E0828A4FF2FF731A4082827047828A78
:103490004FF6FB731A408282828A0A438282704707
:1034A00021B1828A42F00202828204E0828A4FF6CF
:1034B000FD731A408282704702460020B1F5007FFA
:1034C00000D100BF13880B400BB1012000E00020A9
:1034D000704701F40072B2F5007F00D100BFCA430B
:1034E0000280704770B502460024002300250020AA
:1034F00040F66A16B14200D100BFC1F3421501F097
:103500001F03012606FA03F3012D02D196893340E9
:1035100006E0022D02D1168A334001E0968A33403C
:103520000C12012606FA04F41688344013B10CB1CB
:10353000012000E0002070BD10B50022002340F6FD
:103540006A14A14200D100BF0A1201249440A3B220
:10355000DC43048010BD00000038014000440040FE
:1035600000480040004C00400050004010B50446A8
:10357000BE48844208D101218014FEF79BFE002141
:10358000A014FEF797FE16E0B948844208D1012145
:103590000014FEF79CFE00212014FEF798FE0AE0BE
:1035A000B448844207D10121C013FEF790FE0021E8
:1035B000E013FEF78CFE10BD10B50022028802F465
:1035C00041520B884C8823438C882343CC88234367
:1035D0000C8923434C8923438C892343CC8923437F
:1035E0001A430280838B4FF2FF74234083830B8A3C
:1035F000038210BD2DE9F04F85B005460C464FF013
:10360000000902274FF000084FF0010B0026B246D8
:10361000A88B4FF240010840A88302202884B5F807
:103620001C90A068022801D100BF38E0A08810B922
:103630004FF0010B01E04FF0020B8D48854200D1A5
:1036400000E000BF6846FEF7AEFDDDF800A0E088B0
:10365000B0F5007F0AD14FEA1A2000EB800040004D
:10366000A168B0FBF1F0401D86B20BE04FEA4B10B1
:10367000BAFBF0F000EB80004000A168B0FBF1F075
:10368000401D86B20A20B6FBF0F606F00108A6EB54
:103690000800C0F34F074FF6FF7000EA0828022F1A
:1036A00001DBFF2F02DD02274FF00008E08840EA2F
:1036B000080038432884A088A1890843618808430A
:1036C0002188084340F4006040EA0909A5F81C90ED
:1036D00005B0BDE8F08F0021018041808180C1806C
:1036E000018141818181C1810721018270470021CF
:1036F000018041808180C18002218160002181811F
:10370000704721B1028842F04002028004E0028842
:103710004FF6BF731A400280704721B1828B42F48A
:103720008062828304E0828B4FF6FF331A408283EB
:10373000704730B5002400230C110125A540ABB221
:103740001AB185881D43858002E085889D43858068
:1037500030BD1AB183880B43838002E083888B439A
:1037600083807047818170470146888970474FF692
:10377000FF62914204D0028842F48072028004E029
:1037800002884FF6FF631A400280704721B1828899
:1037900042F00402828004E082884FF6FB731A40F4
:1037A0008280704702884FF2FF731A4002800288BD
:1037B0000A4302807047018841F4805101807047BC
:1037C00021B1028842F40052028004E002884DF6E2
:1037D000FF731A400280704702460020012901D081
:1037E000108B00E0908A70470146088A7047B1F557
:1037F000804F04D1028842F48042028004E00288B3
:103800004BF6FF731A40028070470246002013896E
:103810000B400BB1012000E000207047CA43028139
:103820007047F0B50246002000240023002501F077
:103830000F070126BE40B4B20B1101269E40B3B261
:10384000968806EA03051689264016B10DB10120B7
:1038500000E00020F0BD10B5002201F00F040123AC
:10386000A3409AB2D343038110BD00000030014051
:1038700000380040003C0040002044490860091D19
:103880000860091D0860091D086041483F4914315E
:103890000860704700213D498279002A3AD00A46E3
:1038A000126803689A430B461A600A1D126803687F
:1038B0009A430B1D1A60027911440A6803681A437F
:1038C0000A60324A0832126803689A432F4B083361
:1038D0001A601A1D126803689A432C4B0C331A6045
:1038E0004279102A0ED11A1F126803681A43274B17
:1038F00008331A601A1D126803681A43234B0C33ED
:103900001A600DE02149427911440A6803681A439C
:103910000A6005E0027911440A6803689A430A6064
:1039200070470021016001710C21417100218171FA
:1039300070471649103109680143144A103211606A
:10394000704701460020114A143212680A400AB139
:10395000012000E0002070470C49143108607047D6
:10396000014600200022094B1B6803EA0102074BB5
:1039700014331B680B4013B10AB1012000E0002092
:10398000704702491431086070470000000401408C
:10399000FFFF0F00704700000FB4044910B503AAE1
:1039A000029800F013F910BC5DF814FBA000002091
:1039B0002DE9F0410E460446002020622046E168D1
:1039C000884730B3252805D0D4E901219047206AE3
:1039D000401CF2E7E168204600278847050018D020
:1039E000A5F14100192802D820354FF4006732466E
:1039F000294620462760FCF7B3FB40B1012804D0DC
:103A0000F61D26F007060836D8E7361DD6E7284605
:103A1000DAE7206ABDE8F08170B50C460546012A58
:103A200005D02878800600D5EA69002302E001234A
:103A300005E05B1C934202D2E05C0028F9D1A86942
:103A4000E618C01AA861286A184428622846AFF30D
:103A5000008004E0D5E9012114F8010B9047B4423D
:103A6000F8D32846AFF3008070BD00002DE9F04187
:103A70000646002410687529314616A510D0AFF30C
:103A80000080002802DA404213A507E031688A0767
:103A900001D512A502E0490704D511A5012401E0D2
:103AA000AFF3008000210A2206F1240709E0B0FBF1
:103AB000F2FCB0FBF2F302FB1C00303078541846E5
:103AC000491C0028F3D123462A463046BDE8F04180
:103AD00000F00CB8000000002D0000002B000000DA
:103AE0002000000070477047704770472DE9F0478D
:103AF0000D4699469246044600F12408016888065E
:103B000004D5E06921F01001216000E00120A84205
:103B100001DD471B00E00027A1697A1902EB0900CB
:103B2000081AA0612078C00602D42046AFF30080B6
:103B3000002608E0D4E901211AF806009047206A1F
:103B4000401C761C20624E45F4DB2078C0060AD566
:103B50002046AFF3008006E0D4E9012130209047F1
:103B6000206A401C2062381EA7F10107F4DC07E040
:103B7000D4E9012118F805009047206A401C206212
:103B8000281EA5F10105F3DC2046AFF30080207864
:103B9000000602D50220BDE8F0870120FBE710B542
:103BA000436913B1AFF3008001E0FFF735FF012057
:103BB00010BD127800F124010A7000224A7001221F
:103BC000EDE711684FF0FF32E9E70000074B70B5F1
:103BD0000D467B4400F011F80446284600F020F81A
:103BE00010B14FF0FF3070BD204670BD75DEFFFF95
:103BF00001694A1C02610878704700B58FB0CDE9B1
:103C000001310021059105497944CDE903101146A0
:103C10006846FFF7CDFE0FB000BD0000E5FFFFFFD7
:103C2000007B00F08000704700487047CC01002006
:103C30007546FFF7F9FFAE4605006946534620F08A
:103C40000700854618B020B5FDF77EFFBDE820408F
:103C50004FF000064FF000074FF000084FF0000B48
:103C600021F00701AC46ACE8C009ACE8C009ACE8FB
:103C7000C009ACE8C0098D46704710B50446AFF3E3
:103C800000802046BDE81040FCF77FBA490050EAAA
:103C9000C12018BF04204A0D18BF40F0010040F2B7
:103CA000FF72B2EB515F08BF40F00200012808BF6D
:103CB000052070472DE9F0414F1E00EBC701044677
:103CC000D1E9000115461E4637F006020DD02A46FE
:103CD000334600F073FC7F1E04EBC703D3E90023D7
:103CE00000F04CFA37F00602F1D1022F25D0042F54
:103CF00013D0062F18BFBDE8F0812A46334600F0E6
:103D00005DFCD4E90A2300F039FA2A46334600F074
:103D100055FCD4E9082300F031FA2A46334600F076
:103D20004DFCD4E9062300F029FA2A46334600F078
:103D300045FCD4E9042300F021FA2A46334600F07A
:103D40003DFCD4E9022300F019FA2A46334600F07C
:103D500035FCD4E90023BDE8F04100F00FBA0122A0
:103D600001F0A7B900F00ABA024A0020110701F0D9
:103D7000A0B9000001FDFFFF2DE9F84F04460D46F4
:103D800021F0004000917349814211DC7249884260
:103D900001DC06D12CB120462946BDE8F84FFFF7DB
:103DA000DEBF6E48002DCCBF6D496E49BDE8F88F6F
:103DB0006D49814211DD6D498142D8BF4FF0FF3618
:103DC0006DDD20462946FFF761FF042808BFFFF795
:103DD000CBFF20462946BDE8F88F6549654F25F0A1
:103DE0000045814233DD6449814219DD00263246B7
:103DF0004FF080432046294600F0C0F980468A46AD
:103E000001222046294601F054F900223B4600F0E9
:103E1000DFFC4246534600F061FA04460D463EE0A0
:103E200001260022BA463B462046294600F0A6F964
:103E300080460F46002253462046294600F0C8FC23
:103E400042463B4600F04AFA04460D4627E04B49FD
:103E500081421BDDDFF828A10226002253462046BE
:103E6000294600F0ABFB00223B4600F087F9804674
:103E70000F46002253462046294600F0A9FC424640
:103E80003B4600F02BFA04460D4608E00326224686
:103E90002B4600203B4900F021FA04460D462246FD
:103EA0002B461046194600F089FB8B468246024697
:103EB0000B4600F083FB07460246334888460B4614
:103EC00006217844FFF7F6FE52465B4600F076FB8B
:103ED00082462E488B463A46434605217844FFF7F2
:103EE000E9FE3A46434600F069FB02460B46002EC7
:103EF000504659460CDA00F041F922462B4600F0B4
:103F00005DFB01B022462B46BDE8F04F00F054BCEB
:103F100000F034F922462B4600F050FB1C4A7A444C
:103F200002EBC603D3E9002300F052FC22462B46E5
:103F300000F04EFC174A7A4402EBC603D3E9002393
:103F400000F03AFC009A002AB8BF81F00041BDE8B9
:103F5000F88F0000000010440000F07F182D44543A
:103F6000FB21F93FFB21F9BF0000DC3F0000203EB0
:103F70000000F33F0000F03F0000E63F00800340F8
:103F80000000F83F0000F0BFE2120000A0120000A5
:103F90003E120000061200002DE9F04D9446CCF1CF
:103FA000000423F000464CEA0404524F46EAD4745D
:103FB0009A46884621F00042BC4206D8454240EA73
:103FC000050442EAD474BC4204D9BDE8F04D62460F
:103FD000FFF7C8BEAAF14055A5F17F6555EA0C046C
:103FE0000BD0022404EAAA74434DDFF810E144EA3E
:103FF000D87452EA000B04D00CE0BDE8F04DFFF796
:10400000BBBE002C14BF012CBDE8F08D022C30D0BB
:10401000032C32D056EA0C0B0AD0BE4220D1BA4251
:1040200009D126F0804622F080423346114617E03F
:1040300000291ADB25E0DFF8C8B0FB44002C04BFE0
:10404000DBE90001BDE8F08D012C02BFDBE90001D6
:1040500081F00041BDE8F08D022C0AD0032C0CD079
:10406000BA4212D1B8F1000F0BDA23482549BDE856
:10407000F08D28462449BDE8F08D28467146BDE8FC
:10408000F08D1D482149BDE8F08D921B12153C2A88
:10409000C4BF19481D490EDCBAF1000FBEBF12F1B2
:1040A0003C0F0020014606DB624600F017F921F0C4
:1040B0000041FFF761FE002C08BFBDE8F08D012C28
:1040C00004BF81F00041BDE8F08D114A114B022C74
:1040D00007D000F07DFB2A46BDE8F04D0A4B00F00A
:1040E00077BB00F075FB2A46BDE8F04D064B00F0AB
:1040F00063BB00000000F07F182D4454FB2109C071
:104100009A110000FB21F9BFFB210940FB21F93F77
:10411000075C143326A6A13C21F00042A2F16052B4
:10412000B2F5801F01F0004328BFD2F17F6C0BD99C
:104130005FEA001C43EAC20242EB507018BF7047AE
:1041400028BF20F001007047B2F5801FBCBF1846A1
:1041500070474FEA410C1CF5001F02D2084600F0E0
:10416000C0BE70B500F0D4FA00000089FFF7F6BFBA
:104170004FF00040A0F580007047000010B591EAB4
:10418000030F48BF83F0004300F12A83841A71EBC8
:10419000030C05D2121943EB0C03001B61EB0C015D
:1041A000DFF824E14FEA1154A4EB135C1EEA430F3D
:1041B00018BF9EEA445F73D023EA0E03DCF1200EA1
:1041C00021EA045143F4801332D322FA0CFE10EB9F
:1041D0000E0023FA0CFE41EB0E01CCF1200E03FA87
:1041E0000EFE10EB0E0051F10001B1F5801FCCF175
:1041F000200E32D201EB045112FA0EF2BDE810404B
:1042000058BF7047401C38BF5FEA420218BF704772
:10421000002814BF20F0010041F100014FEA4103E2
:1042200013F5001F38BF7047A1F1C04100F0BEBABE
:10423000012A43EB0302ACF1200CDCF11F0E32BF6C
:104240004FF0000E23FA0CF310EB030041EB045186
:10425000B4EB115FD0D0A1EB045101F580114908F6
:104260005FEA300001EB04510ED350F1000038BF7B
:1042700012FA0EFE08D1BDE81040C9E7401C38BF55
:104280005FEA4202CAD1C3E7BDE810404FEA4103EA
:1042900013F5001F38BF7047A1F1C04100F086BA86
:1042A0009EEA445F08D011EA5E0FBDE8104004BFEB
:1042B00001F0004100207047BDE8104070B500F0EB
:1042C00027FA00BF64FBBE3E0000E0FF02494FF04A
:1042D000000000F0BCBE00BF0000F87F2DE9C04127
:1042E00030B4DFF8A0C23CEA111418BF3CEA131442
:1042F00000F0EC8081EA03051CEA111444EAD5744D
:1043000018BF1CEA131500F0C780A4EB05044FF09A
:10431000004545EAC12145EAC32341EA505143EA39
:10432000525304F17F74994204F500344FEAC020DF
:104330004FEAC22208BF904200F09C804FEA13650A
:104340000FF24016765D4FEA134506FB05F7C7F1FD
:10435000807706FB07F74FEAD737A7FB036876425B
:10436000C8F58038A7FB06CE38BFA8F1010807FBC7
:1043700008E64FF0000EA6FB028CE6FB03CEDCF154
:10438000000CCEF1004E38BFAEF1010EA6FB0C586A
:104390004FF000074FF00005E6FB0E87A1FB08C6B3
:1043A000A0FB07CE16EB0E0645F10005E1FB076505
:1043B00015F1E04E7EBFA4F580345FEA46066D41FC
:1043C00016F1800745F100054FEA17274FEA066608
:1043D00047EA0567A6F1DE46B6F1805F4FEA15258C
:1043E0001FD9384624F0010C05EBC471BCF1FE6FF7
:1043F00001EB0C1102D8F0BCBDE8008124425CBF87
:1044000001F5801E9EEAC47F02D4F0BCBDE80081A5
:10441000244238D4F0BCA1F1C041BDE8004100F015
:10442000C5B94FEAD22242EA43524FEAD323A7FB4F
:1044300002864FEAD02040EA415007FB03661EEA9D
:104440000E0F4FEAD12105FB026658BFA6EB0056BE
:10445000B6EB00564FEA520E4EEAC37E18EB0E0E34
:1044600056EB530EBDD518EB02085E417F1C55F18B
:104470000005B6E74FF480154FF000074FF0000637
:104480004FF00008ADE7F0BC4FF0000001F1C04173
:1044900001F00041BDE8008111EA0C1F0CEA131580
:1044A00000D00CE013EA0C1F00F025804FF0000054
:1044B000F0BC81EA030101F00041BDE80081F0BCDD
:1044C000BDE8004181EA030100F070B9F0BCBDE82D
:1044D000004170B500F01CF9097EFC3E00F007B801
:1044E00081EA03014FF0000001F00041704781EACA
:1044F000030100F05BB9F0BCBDE800414FF00000E3
:1045000021497047FFFDFBF9F7F5F4F2F0EEEDEB12
:10451000E9E8E6E4E3E1E0DEDDDBDAD8D7D5D4D3C1
:10452000D1D0CFCDCCCBCAC8C7C6C5C4C2C1C0BF0D
:10453000BEBDBCBBBAB9B8B7B6B5B4B3B2B1B0AF13
:10454000AEADACABAAA9A8A8A7A6A5A4A3A3A2A1F7
:10455000A09F9F9E9D9C9C9B9A99999897979695B2
:1045600095949393929191908F8F8E8E8D8C8C8B4E
:104570008B8A8989888887878685858484838382D6
:10458000828181800000FF070000F87F10F0004268
:1045900048BF4042B0FA80F310FA03F10AD0C3F1E9
:1045A0001D0303F580634FEA415002EB035202EB17
:1045B000D12170474FF0000070470000DFF848C17C
:1045C00070B51CEA111E1EBF1CEA13159EEA0C0FE3
:1045D00095EA0C0F00F06F8081EA030423EA4C1384
:1045E0004EEAD47E21EA4C1141F4801143F4801349
:1045F000AE44A1FB024CA0FB0365AEF17F7E3619F1
:1046000055EB0C05A1FB034C4CF10003A0FB021C75
:1046100016EB0C06654153F10003094218BF46F042
:10462000010613F4007F0BD14FEA03314FEA053046
:10463000340341EA155140EA16506FF003020AE0D4
:104640004FEAC3214FEAC520F40241EA555140EA3E
:1046500056506FF0020202EB2E4201EB025585EA42
:10466000CE710AD05FEA440C18BF24F0004450F128
:10467000000041F1000120EAD47040F2FE7C624566
:1046800000D270BDA84214BF4FF080444FF04044A8
:10469000002E08BF0024BEF1806FA8BFA1F1C04169
:1046A000BDE8704080F282804FF0000001F1C0410F
:1046B00001F0004170479EEA0C0F0CEA131518BF79
:1046C00095EA0C0F06D04FF0000081EA030E0EF0C1
:1046D000004170BD00F01CF88900013E00F007B8F1
:1046E00000F009B84FEA430C5FEA5C5C08D081EA4D
:1046F000030100F05BB84FEA410C5FEA5C5CF6D165
:104700004FF00000014970470000FF070000F87FEC
:104710000EF1020E2EF0030E5EF8046B364205D445
:10472000012A43EB030515F5001F12D8012841EBC0
:10473000010C1CF5001F0CD80ED14FEAD17C15F5E9
:10474000001F0CEB4C0C0CF1020C08BF4CEBD37CA3
:1047500004E04FF0080C01E04FEAD37C0CEB4C0571
:1047600026FA05F606F00706B6F1040C06D20EEBA3
:10477000860CBDE870404CF0010C6047DFE80CF09F
:10478000090B02024FF000414FF00000A1F500219B
:1047900070BD19461046012851EB010418BFD4F52D
:1047A000001484BF002001F0004170BD0808A0F58E
:1047B00000114FEA3101704791EA030F10B581F003
:1047C00000413FF5E3AC83F0004300F009B800007E
:1047D00010B591EA030F48BF83F000433FF5D6AC14
:1047E000841A71EB030C07D212198CF0004C43EBC6
:1047F0000C03001B61EB0C01DFF8A4E14FEA11543C
:10480000A4EB135C1EEA430F18BF9EEA445F00F05E
:10481000B08023EA6E03524221EA0451C3EB6E03D7
:1048200038BF5B1EDCF1200E25D322FA0CFE10EB04
:104830000E0043FA0CFE41EB0E01CCF1200E03FA00
:104840000EFE10EB0E0051F10001CCF1200E29D428
:1048500012FA0EF201EB0451BDE8104058BF704748
:10486000401C1CBFB2F1004F704700280CBF491C10
:1048700020F00100704712EB020E43EB030218BF59
:104880004FF0010E4EEA4202ACF1200CDCF11E0E9C
:1048900054D943FA0CFE10EB0E0051F1FF31CCF16C
:1048A0001E0ED5D50EF1010E12FA0EFE404141EB5F
:1048B000010101EB445C5FEA5C5C10D910EBDE7037
:1048C00001EB045138BFBEF1004FBDE8104018BFE6
:1048D000704700280CBF491C20F00100704730D2FF
:1048E0004FEAD42C11F5001124F400641BD0B1FA66
:1048F00081F20B3AA41AA41ED2F12003914030FA9F
:1049000003F31943904001EBCC71002C01EB0451EF
:10491000BDE81040A8BF704701F1C0414FF0000052
:1049200001F000417047B0FA80F310FA03F100D1B2
:1049300010BDE41A173C4805C90AE4E701EB04512D
:1049400010BD491001EB0451BDE810404FEA3000A2
:1049500002E04FF0000170474A0008BF0042F8D063
:10496000B2F5001F28BF704701F000414FF0000072
:1049700070479EEA445F07D011EA5E0FBDE8104021
:1049800004BF002100207047BDE8104070B5FFF75C
:10499000BFFE00BF40DFF63E83F000411046704787
:1049A0000000E0FF43004FEAD30C4FEA3C0C4340C9
:1049B0001FBF40070CF1605113F0FE4F70471CF011
:1049C000006F03D100200CF0004170470CF0004351
:1049D00043EA507010B540EACC0000F03CFA00BF4A
:1049E000000000924FEA0001FFF7E0BE4FF00041E7
:1049F0004FF00000A1F500217047000090EA010F80
:104A000048BF81F0004100F1B482421A3CBF801AD5
:104A100089184FEAD0524FF07F4C1CEA410FA2EBAD
:104A2000D15318BF9CEA026F00F03B804FF0004C5E
:104A30004CEA00204CEA012121FA03FC10EB0C0C9B
:104A40001ED202F1FF325FEA1C2040EBC25038BF99
:104A500070471CF07F0F4FEA400C18BFBCF17F4F2E
:104A600038BF7047C3F12003994008BF20F0010010
:104A7000BCF17F4F38BF7047A0F1C04000F031BAA1
:104A80004FEA3C00000A40EBC25028BF1CF0FF0F69
:104A90004FEA400CE6D018BFBCF17F4F38BF7047DB
:104AA000EAE79CEA026F05D010EA5C0F08BF00F04D
:104AB0000040704710B500F0CEF900BF64FBBE3E69
:104AC000401058BFC0F14040491058BFC1F14041AB
:104AD0008142EFF3008070474FF47F0C1CEAD01244
:104AE0001EBF1CEAD11392EA0C0F93EA0C0F00F0E0
:104AF000858090EA010F48BF42F4807240F4000CB8
:104B000041F400002CF07F4120F07F4000B581424D
:104B1000A2EB03020FF2081CACEB504EC0F10000F8
:104B20009EF800E04FEA4E0E00FB0EFC38BF490035
:104B30004FEA2C1C02F5FA020CFB0EF34FEACE1ED4
:104B40004FEA112C4FEAC1210EEB635E42EB224289
:104B50000EFB0CFC4FEA1C5300FB03114FEA112C17
:104B60004FEA01310EFB0CFC4FEADC4C00FB0C1150
:104B7000C14228BF09184CEB03335DF804EB10EB7E
:104B8000410143EBC250B2F57C0F38BF704729D5C5
:104B900012F0F00F1CBF00F1C04000F00040704761
:104BA000008182838485868788898B8C8D8E8F9106
:104BB0009293959697999A9C9D9FA0A2A3A5A7A82A
:104BC000AAACAEB0B2B3B5B7B9BCBEC0C2C5C7C956
:104BD000CCCED1D4D7D9DCDFE2E6E9ECF0F3F7FABA
:104BE000FE0000004FEA400C0CF1807CBCF17E4FCF
:104BF00028BF7047B0F1C04000F073B990EA010FD0
:104C00000CEAD11348BF42F48072624538BF634555
:104C100007D213F47F0F16D080EA010000F00040A5
:104C2000704710B500F017F9097EFC3E00F005B89A
:104C300080EA010000F00040704780EA010000F0C7
:104C4000004000F04EB912F47F0F04BF02487047D5
:104C500080EA010000F045B90000C07F41000B0E62
:104C6000D3F19E0208D950F400034FEA032323FA3C
:104C700002F048BF4042704710B500F0ECF800BFAA
:104C800049922480002070476FF0004282EA2000A1
:104C90007047000010F0004148BF4042B0FA80F376
:104CA00010FA03F2C3F19D030BD051EAC35101EB9B
:104CB0001220530638BF704700F1010008BF20F0F2
:104CC00001007047B0FA80F310FA03F2C3F19D03BC
:104CD0000AD0D90501EB1220530638BF704700F106
:104CE000010008BF20F001007047000050EA010CED
:104CF00000F113801CF5000F58BFBCF5000F01D464
:104D00008842704707D710F5000F58BF11F5000F04
:104D100015D488427047894270471CF5000F04D5AE
:104D2000BCF5000FF7D5814270474FF0807C1CEB3B
:104D3000400F38BF1CEB410F01D28142704710B5C4
:104D400000F089F8922449004FF000504FF0805154
:104D5000FFF7B6BE4FF47F0C1CEAD0121EBF1CEA50
:104D6000D11392EA0C0F93EA0C0F00F0478090EAFF
:104D7000010F48BF42F480724FF0004C4CEA002013
:104D80004CEA012102EB0302A0FB0113A2F5000291
:104D9000002918BF43F001035B0028BF4FEA33032B
:104DA00042EB22425FEA132C4CEBC2502EBFBCEB0D
:104DB000436FB2F57C0F70474FEA036CBCF1004FB4
:104DC00008BF20F00100B2F57C0F38BF70470BD54B
:104DD00082F0FF0212F5803FC8BF704700F1C0406B
:104DE000D8BF00F00040704700F5000C5FEA4C0CA3
:104DF00048BF7047B0F1C04000F073B890EA010FAF
:104E00000CEAD11348BF42F48072624538BF634553
:104E100004D280EA010000F00040704710B500F0B5
:104E20001AF800BF8900013E00F007B800F009B889
:104E30005FEA410C5FEA1C6C08D080EA010000F0D8
:104E400050B85FEA400C5FEA1C6CF6D14FF00040AE
:104E5000A0F5800070470EF1020E2EF0030E5EF8F2
:104E6000044B244204D44FEA4102B2F17F4F11D8DF
:104E70004FEA4003B3F17F4F0CD80ED14FEAD07CFC
:104E8000B2F17F4F0CEB4C0C0CF1020C08BF4CEB59
:104E9000D17C04E04FF0080C01E04FEAD17C0CEB30
:104EA0004C0324FA03F404F00704B4F1040C06D212
:104EB0000EEB840CBDE810404CF0010C6047DFE8BD
:104EC0000CF0070802024FF00040A0F5800010BD72
:104ED0000846420018BFD2F1807288BF00F000403F
:104EE00010BDFF2141EAD050C005704751EA000CC7
:104EF00000F113801CF5000F58BFBCF5000F01D462
:104F00008142704707D711F5000F58BF10F5000F09
:104F100015D481427047894270471CF5000F04D5B3
:104F2000BCF5000FF7D5884270474FF0807C1CEB32
:104F3000410F38BF1CEB400F01D28842704780EA16
:104F4000010081EA000180EA0100FFF7F8BE80F06D
:104F5000004090EA010F7FF558AD81F0004100F06C
:104F600008B8000090EA010F48BF81F000413FF50A
:104F70004CAD421A04D882F00042A0EB020011446A
:104F80004FEAD0524FF07F4C1CEA410FA2EBD153B5
:104F900018BF9CEA026F4AD04FF0004C4CEA002048
:104FA0004CEA012121FA03FCB0EB0C0C0FD412F0F7
:104FB000FE0F36D05FEA4C001DD5001240EBC25008
:104FC00038BF70471CF03F0F18BF70470BE0A2F1CD
:104FD00001025FEA1C2040EBC25038BF70471CF052
:104FE0007F0F18BF7047C3F12003994014BF401EC4
:104FF00020F00100704780084FEA122308BF704775
:10500000B0FA80FCA2EB0C02CCF1280C60FA0CF098
:1050100093EA122F04BF00EBC25070474FEAC370EF
:105020007047130A5FEADC1008BF7047F6E79CEA96
:10503000026F04D010EA5C0F08BF0020704710B563
:10504000FFF709FF40DFF63E81F0004070470CF0AB
:105050000F03092B08BF082000F059800A2B0BD042
:10506000082B18BF704708BF1CF0400F0AD04FF044
:1050700000004FF0000170471CF0400F18BF4FF0C8
:10508000004070471CF0100F08D020F0704300F073
:105090007F4242EAD3014FEA4370704700F060401C
:1050A00021F07F4242EA000201F07F4040EA727044
:1050B00070474FF0FF0C4CF4E06C1CEA11531CBF1E
:1050C0009CEA030C9445C2BFDA4201EB02517047DF
:1050D000002B0DD0BCF1000F0FD0002A01F00041D1
:1050E000A4BF41F0E04141F07F614FF00000704704
:1050F00001F000414FF00000704750EA01334FF0DB
:105100009B0C18BF4CF0806C7FF4E0A870471CF437
:10511000801F11D01CF4E02F03D06FEACC3149007E
:1051200070474FF04050EFF3008222F0704242EAA5
:10513000000282F3008870474FF0000070470000C3
:105140004FBB610567ACDD3F182D4454FB21E93F9F
:105150009BF681D20B73EF3F182D4454FB21F93F8E
:10516000E2652F227F2B7A3C075C143326A6813C14
:10517000BDCBF07A8807703C075C143326A6913CBF
:10518000C4EB98999999C9BF711623FEC671BCBF2B
:105190006D9A74AFF2B0B3BF9AFDDE522DDEADBF93
:1051A0002F6C6A2C44B4A2BF0D5555555555D53FAB
:1051B000FF8300922449C23F6E204CC5CD45B73FC6
:1051C000513DD0A0660DB13FEB0D76244B7BA93F3E
:1051D00011DA22E33AAD903F000000000000000029
:1051E0000052000800000020BC0000002801000858
:1051F000BC520008BC0000207407000044010008F5
:1052000000A24A04000000000000000001020304A4
:105210000607080900000000000000000000000070
:10522000000000000000000000000000000000007E
:105230006F12033B0AD7233CA69B443B0AD7A33BF0
:10524000010000000000000000000000000000005D
:10525000000000000000000000000000000000004E
:1052600000000000000000000000803F000000007F
:10527000000000000000803F00000000000000006F
:1052800000000000000000000000AABBCC0001AA42
:10529000BBCC000100000000000000000000000086
:1052A00000000000000000000000010203040102F1
:0C52B000030406070809020406080000B9
:04000005080000ED02
:00000001FF
